:020000041000EA
:1000000000B5324B212058609868022188439860DF
:10001000D860186158612E4B002199600221596106
:100020000121F02299502B49196001219960352056
:1000300000F044F80222904214D00621196600F024
:1000400034F8196E01211966002018661A6600F04E
:100050002CF8196E196E196E052000F02FF8012189
:100060000842F9D1002199601B49196000215960AB
:100070001A491B48016001219960EB211966A021F2
:10008000196600F012F800219960164914480160C1
:100090000121996001BC002800D000471248134993
:1000A000086003C880F30888084703B5996A0420EC
:1000B0000142FBD001200142F8D103BD02B5186610
:1000C0001866FFF7F2FF186E186E02BD00000240BE
:1000D000000000180000070000035F00212200005C
:1000E000F4000018222000A00001001008ED00E03C
:1000F00000000000000000000000000074B24E7A12
:1001000000200420F7010010C3010010C5010010F9
:10011000C1010010C1010010C1010010C101001097
:10012000C1010010C1010010C1010010C701001081
:10013000C1010010C1010010C9010010CB01001065
:10014000CD010010CD010010CD010010CD01001037
:10015000CD010010CD010010CD010010CD01001027
:10016000CD010010CD010010CD010010CD01001017
:10017000CD010010CD010010CD010010CD01001007
:10018000CD010010CD010010CD010010CD010010F7
:10019000CD010010CD010010CD010010CD010010E7
:1001A000CD010010CD010010CD010010CD010010D7
:1001B000CD010010CD010010CD010010CD010010C7
:1001C00000BE00BE00BE00BE00BE00BEEFF3058054
:1001D000103800BEF2EB8871ECBE00100CBF0010AE
:1001E0003402001090A31AE700201F49086006C8D7
:1001F00081F3088810471D48006800282FD10DA4FE
:100200000ECC002902D000F012F8F9E71849194A7B
:10021000002000E001C19142FCD1174988471749ED
:1002200088471749884700BEFDE701C901C29A42C5
:10023000FBD370470CBF0010C0000020BC0C002096
:1002400008CB0010000004200000042008CB0010A0
:10025000001004200010042000000000704709482E
:1002600003F002FC0047000008ED00E0000000D0B1
:10027000C00C0020101E0220B92700103D080010FD
:10028000752700105756000006005250ABB360535C
:1002900010AB001006005250861C030220AB001069
:1002A000060052505422A29D2CAB00100500525063
:1002B000DE65F46808CB0010F8B5C046064807496B
:1002C000091A8B10C90FC91810B5491003D0044B77
:1002D000002B00D0984710BDBC0C0020BC0C0020A7
:1002E00000000000054B10B5002B03D00449054861
:1002F00000E000BFFFF7E2FF10BDC04600000000B5
:10030000D0170020809B001070B516E0D0252D0678
:1003100001266E610B4C2168FA20800003F0D0FBAF
:1003200008F084FEAE612168FA20800003F0C8FB6B
:1003300008F07CFE052008F079FE034B1B68012BBA
:10034000E4D0F7E7A00B0020C80D0020F8B502E0CC
:100350000A2008F06BFE154B1B68012BF8D1D02347
:100360001B065B689B05F3D5D02424060427676130
:100370000F4E30680F4D684308F058FEA7610437F0
:1003800067613068684308F051FEA761083767610C
:100390003068684308F04AFEA7611037676130682B
:1003A000684308F043FEA761D2E7C046C80D0020AD
:1003B000A00B00208813000010B51AE008F0B4FC70
:1003C000D0221206136916490B40D361154A1368EF
:1003D00059424B41136008F079FD17E0D0231B060A
:1003E0008022D2029A61C82008F020FE052008F081
:1003F0001DFED0231B065B685B04F7D5094B1B6809
:10040000012BDBD05A425341064A1360054B1B684F
:10041000002BE3D0D0231B068022D2025A61E2E7F0
:100420003D005C00C80D002010B50BE00F4B1968B3
:100430000F4804F091FC9620400008F0F7FD0520DD
:1004400008F0F4FD0B4B1B68012BF8D1D0231B06E1
:100450005B681B05F3D5054A136801331360032B52
:10046000E4DD130001221A60E0E7C046A00B002083
:10047000809B0010C80D002010B50EE0134B144AED
:1004800014483F2102F07AF9104B114A11483F21DC
:1004900002F074F90A2008F0C9FDD0231B065B683E
:1004A000DB04F7D501F044FC0029E7DBD0231B0671
:1004B0008022D2035A6101F03BFC0029E4DBD02307
:1004C0001B068022D2039A61E4E7C046989B001085
:1004D000F89C0010B49B001010B50EE0134B144AAA
:1004E00014483F2102F04AF9104B114A11483F21AC
:1004F00002F044F9052008F099FDD0231B065B6843
:100500005B05F7D501F014FC0029E7DBD0231B06BF
:10051000802212035A6101F00BFC0029E4DBD02396
:100520001B06802212039A61E4E7C046989B0010E4
:10053000F89C0010B49B001030B587B055E001F076
:10054000F7FB04000D1E69DB0F236B4420221A7099
:100550000F236B441B789B0619D53F48002300935B
:1005600001330F226A44182107F0CCF801F0E0FBB8
:1005700002000B1E58DB121BAB41002B03DCE7D142
:10058000364B9A42E4D90F236B4400221A7032484A
:1005900000230093043305AA182107F0B3F80428B8
:1005A00048D105AB1B7805221A4248D105AB5878D3
:1005B00000049A7812021043DB781843284B9C46BB
:1005C000604404F055F9274904F01BF9264904F06A
:1005D00002F9002104F0FAF8244904F043F9002854
:1005E00032D1FA20400008F021FD214B1B68012B7D
:1005F000F7D1204B1A8869460A829B788B7416487B
:1006000000230093033304AA182107F06FF803288E
:1006100095D0FA20400008F009FDE6E7164B174A8E
:1006200017483F2102F0AAF8134B144A14483F21FF
:1006300002F0A4F8FA20400008F0F8FCD5E7FA2010
:10064000400008F0F3FCD0E7D0231B068022120301
:100650005A6108F069FBC4E7800C0020204E0000BE
:100660006666E6FF0000C841CCCC4C4B00009041D0
:10067000C80D0020F49C0010989B0010F89C0010FE
:10068000B49B001070B5D0242406402565613C2041
:1006900008F0CCFCA56170BDF8B5FFF7F3FF01F0E1
:1006A00047FB04000D1E1DDB494A0023A4185D41D1
:1006B000002D1DDB002D1FDBD0231B065B689B0775
:1006C00026D401F035FB02000B1E1BDB20002900A5
:1006D000801A99410029EFDC01D10028ECD10020DB
:1006E0003C49F8BD3C4B3D4A3D483F2102F046F8AD
:1006F000012464423B4DDDE7374B384A38483F21FF
:1007000002F03CF8344B354A35483F2102F036F8C8
:1007100001F00EFB06000F1E22DB01F009FB0400B6
:100720000D1E23DB2A4A0023A4185D41002D23DB84
:10073000002D25DBD0231B065B689B072CD501F021
:10074000F7FA02000B1E21DB20002900801A9941D4
:100750000029EFDC01D10028ECD100201D49C0E7C1
:100760001D4B1E4A1E483F2102F008F81A4B1B4A37
:100770001B483F2102F002F801246442194DD7E7DB
:10078000154B164A16483F2101F0F8FF124B134A49
:1007900013483F2101F0F2FF01F0CAFA02000B1EDC
:1007A0000FDB921BBB411000190004F085F80E49C5
:1007B00004F027F8FC21890504F023F804F08AF8F6
:1007C0008FE7054B054A06483F2101F0D7FFC04699
:1007D000400D03000000F0BF989B0010F89C001033
:1007E000B49B0010FFFFFF7F287E0C3D10B507E093
:1007F000D0231B06802252039A61642008F016FC65
:100800000C4B1B68012BFBD1FFF746FF0022002396
:1008100003F03AFC0028EBD0FFF73EFF0022064B26
:1008200003F024FC0028E3D0D0231B0680225203CF
:100830005A61E2E7C80D002000003E40F0B5C64610
:1008400000B58AB004F094FA464D280000F0EDF8A7
:10085000D02424066562E825ED01280000F0E5F8C3
:10086000A5623C2000F0E1F83C236362062000F022
:10087000D1F840236362012000F0CCF802239846AF
:10088000A3623948394906F005FF0321102000F022
:100890008FF80321112000F08BF800220121102095
:1008A00000F09EF800220121112000F099F80023A9
:1008B0000993089307930693059304930393029374
:1008C0008024E4002A492B4809AB019304260096B2
:1008D0000023220008F0AEF92749284808AB01930D
:1008E000032500950023220008F0A4F92449254897
:1008F00007AB0193012700970023220008F09AF923
:100900002149224806AB019300950023220008F0FC
:1009100091F91F491F4805AB0193434600930023FB
:10092000220008F087F91C491C4804AB019300978A
:100930000023220008F07EF919491A4803AB0193FD
:1009400000960023220008F075F91749174802ABFA
:10095000019300950023220008F06CF908F0B0F92B
:10096000FEE7C04601005C00800C0020A08601006C
:10097000FC9B0010B9030010149C0010ED07001040
:100980003C9C001079040010649C0010D9040010F5
:10099000749C0010290400109C9C00100903001096
:1009A000BC9C00104D030010DC9C001039050010A9
:1009B00010B58300084A944663441A684024624094
:1009C000803414408022520113431C60C000034B4A
:1009D0009C466044416010BD04C00140004001409D
:1009E00080000B4B9C46604400290DD00823002A50
:1009F0000CD004221343026853400C221A40802377
:100A00005B0103431A6070470023F0E70022F1E71F
:100A100004C0014010B501238340D0221206936226
:100A200093610521FFF7C4FF10BD70B505000024D8
:100A300001E06D0801341D2C05D8EB07F9D5200025
:100A4000FFF7E8FFF5E770BD034B1B680220184075
:100A5000431E9841C0B2704700C00640EFF31080BB
:100A600072B6034B1B68002BFBD0BFF35F8F704740
:100A70002C0100D0BFF35F8F024B00221A6080F37D
:100A8000108870472C0100D0F8B506000C00150046
:100A9000FFF7E4FFE308F718F15C07222240012387
:100AA00093400B4205D1DBB20B433B70FFF7E2FFF3
:100AB000F8BD2100280001F0FBFEF0B583B0060070
:100AC000019114001F00FFF7C9FF00E00134BC4290
:100AD0000CD8E308F518F35C0721214001228A4075
:100AE0001A42F3D1D2B21A432A7001E001246442BF
:100AF000FFF7C0FF002C02DB200003B0F0BD019B1C
:100B0000002BF9D0089801F0D3FE0000002307E085
:100B1000054A9A189200BFF35F8F002111600133DC
:100B20001F2BF5D97047C04640000034054A1078A5
:100B3000431CDBB21370172B02D9130010221A705A
:100B40007047C046A40B002010B582B00100054CD0
:100B5000054B00931F2318222000FFF7AEFF02B0C1
:100B600010BDC04628130020109D0010074B9B6845
:100B7000103080001950BFF35F8FBFF35F8F044BBD
:100B80000021196082F310887047C04600ED00E034
:100B9000240100D010B5091A0B1F0A4A944661447B
:100BA000094A914208D8DA0706D45B105B055B0D51
:100BB0000648184380B210BD054B064A0648A321DB
:100BC00001F0DCFDFC070000FE0F000000E0FFFF6D
:100BD0002C9D00109C9F00105C9D001010B5091A00
:100BE00004394A08090B08D14905490D064B0B4346
:100BF0000380064B1343438010BD054B054A06484E
:100C0000AB2101F0BBFDC04600F0FFFF00F8FFFF85
:100C10009C9D0010709F00105C9D0010012383407C
:100C2000034A10681840431E9841C0B27047C0463E
:100C300000E100E0002904D0034B1860034B18606A
:100C40007047034B1860FBE780E200E000E100E042
:100C500080E100E010B5012383401800FFF7EAFFB0
:100C600010BD000001238340014A13607047C04655
:100C700000E200E0024B9B6810308000C0587047D3
:100C800000ED00E010B5FFF7F5FF002805D0054B9B
:100C9000C01A2F2803D8012010BD0020FCE7002037
:100CA000FAE7C046A80B002070B504000D00EFF372
:100CB000108672B60C4B1B68002BFBD0BFF35F8F06
:100CC0002000FFF7D7FF094B984201D0A84205D179
:100CD000320029002000FFF749FF70BD044B054A90
:100CE0000548862101F04AFD240100D0CD01001005
:100CF000AC9D0010D09F00105C9D0010F0B5DE464A
:100D000057464E464546E0B589B0814601911500EB
:100D1000EFF3108A72B6734B1B68002BFBD0BFF346
:100D20005F8F714B0027DF57002F40DB7C00E419F9
:100D3000A4006E4824180622A2566B4B1A706C4B06
:100D40009A684B4610339B00D35898461E00181AD9
:100D50002F2838D9674B98452FD105AE664B338085
:100D600066497B009B46D8198000604B98464044FA
:100D70000230FFF70FFF7080614BB380FF23B37128
:100D8000F571019B07935F44BB00434407CE07C343
:100D900001231C43A046524641464846FFF7E6FE63
:100DA00009B0F0BCBB46B246A946A046F0BD554BC3
:100DB000554A5648D72101F0E1FC554B524A534859
:100DC000DE2101F0DBFC01380C2102F0A1FE00293C
:100DD00012D101239E43B34633000026DA79AA429A
:100DE00011D90621595600290CDB4A0052189200ED
:100DF0003E491E008B18F1E7464B434A4348EA211F
:100E000001F0BCFC1E00002E3AD005AB424A1A800D
:100E1000813A5A800623F3560293002B17DA3F4893
:100E200005AB9B469880029A9A71DD71019A0792F0
:100E3000301D2100FFF7AEFEB080B7712B4B7A005A
:100E4000D21992009B185A4613CA13C3A3E778001D
:100E5000C0198000254BC0180430311DB388DA0A50
:100E60001C2A07D15B055B1502335B00C918FFF72D
:100E700091FED5E72A4B2B4A2448B12101F07EFC94
:100E800005AE1D4B33801D497B000293DB199B008F
:100E9000164A90461A0042440392901CFFF77AFECD
:100EA0007080039A101D5946FFF774FEB0801E4BE8
:100EB0005A464146521A524153431B0DB371F571C4
:100EC000019A0792029B9C466744BB00434407CEAD
:100ED00007C3114B5A461380813B538001231C43A7
:100EE000A04658E7240100D0081E0220A80B0020CD
:100EF00000ED00E0CD01001000A1FFFFD80B0020A5
:100F000001BDFFFFE49D0010B89F00105C9D001024
:100F10000C9E0010349E00100148000001BD00002E
:100F2000A89E0010A89F0010AAAA0000F0B5CE4607
:100F3000474680B583B006000D00EFF3108872B607
:100F4000554B1B68002BFBD0BFF35F8F534B9A6848
:100F500034001034A300D758514B9F4207D0AF4202
:100F600000D196E001974F4BFB1A2F2B09D942462F
:100F700039003000FFF7FAFD03B0C0BCB946B046F7
:100F8000F0BD3000FFF74AFE814600213000FFF738
:100F900061FEBFF35F8FEFF30581002901D08C4222
:100FA00011D10123019C9C430020A368AB4212D0C5
:100FB0000622A256002A0DDB53009B189B00394ADB
:100FC0002000D418F1E7384B384A36213848FF3131
:100FD00001F0D4FB2000AB4254D106256557002D0B
:100FE00036DB304B6A00521992009B189A68A26057
:100FF000DA79E2719B795BB2A371002B0FDA2D488D
:10100000A080284B6A00521992009B182A4A117836
:101010009971157049463000FFF71CFEA7E7201DA7
:101020006B005B199B001F4A9B18191D9B88DA0AED
:101030001C2A07D15B055B1502335B00C918FFF75B
:10104000A9FDDDE71D4B1E4A1948B12101F096FBB1
:10105000002912D100280ED0FF238371194B838001
:1010600015490B78A3710F4A174BA41A64416343C7
:101070001B0D0B70CEE70A4FF2E71449201DFFF756
:10108000ADFDC7E7124B094A6A210948FF3101F05B
:1010900075FB034F6BE7C046240100D000ED00E074
:1010A000CD010010A80B0020C09E0010889F0010EA
:1010B0005C9D001001BD0000081E0220A89E0010CB
:1010C000A89F001001BDFFFFAAAA0000E20B0020AC
:1010D000F49E001010B5032304009C43064A944676
:1010E000644422681840C000FC3383409A431300D4
:1010F00081400B43236010BD00E400E070B5012285
:1011000002432E4BD31A2F2B28D8EFF30583002B45
:101110002BD0EFF3108C72B6294909680029FBD057
:10112000BFF35F8F254C274905002D1B6D41694397
:10113000090D4CB2244989689B00C95891421BD0C3
:101140000021032932D81D4B4A00521892009B18E7
:101150009B795BB2A3421FD00131F2E71B4B1C4AC3
:10116000C7211C48490001F009FB1B4B184A92217A
:101170001848FF3101F002FB134A92681749D15019
:10118000174B1A7882711C70BFF35F8F0C4B0022D3
:101190001A608CF3108870BD084B4A005518AD00DA
:1011A0005D19FF26AE710F4AAA80E9E70E4B084A87
:1011B000D1210848490001F0E1FAC046A80B0020FF
:1011C000240100D0AAAA000000ED00E0FC9E00105F
:1011D000549F00105C9D0010249F0010CD01001052
:1011E000081E022001BDFFFF309F00100022044BAB
:1011F00002E0044902C30132072AFAD97047C04607
:1012000000E400E08080808010B582B00100074CCF
:10121000074B0093052300222000FFF74EFC002817
:1012200001DB1F23181A02B010BDC0460D1E02209C
:10123000389F0010024B9C46614489000160704752
:101240004000003410B50400FFF770FC01002000DE
:10125000FFF7F0FF01235B426360BFF35F8F10BDB8
:1012600010B50400FFF762FC01002000FFF7E2FF69
:1012700001235B42636000232372BFF35F8F10BDC5
:10128000034B9C46614489000160BFF35F8F704748
:101290004000003410B504000120FFF755FC0100A8
:1012A0002000FFF7EDFF10BD70B505000C00080031
:1012B00000F006FE0949200000F046FDFFF736FC6D
:1012C000074B9C466044800068602C75D0231B0649
:1012D0001B786B75034BA400E55070BDD51500104D
:1012E00040000034F017002010B5084B1A68EFF3E7
:1012F000108172B61368002BFCD0BFF35F8F0348D8
:1013000006F03AFD0020002110BDC046A81C0020B8
:1013100010B5002920D003681B7B99421CD8836834
:10132000154CA446614409015B181C685968002AE1
:1013300018D003681B7B9A4214D883680E488446F1
:10134000624412019B181A685B6801208B4201D825
:101350000ED00020C0B210BD084B094A09483C21FC
:1013600001F00CFA054B064A06483C2101F006FA4A
:10137000A242EFD8EDE7C046FFFFFF0F00A100102B
:1013800014A30010C8A0001010B500291DD0037BC5
:1013900099421AD804684B005B18033BE4180029F3
:1013A00019D0002A1DD0914221D0002A25D0037BDC
:1013B0009A4222D8006853009B18033BC3189970C7
:1013C000217800291FD1227010BD104B104A1148FE
:1013D000682101F0D3F9104B104A0E486F3101F02B
:1013E000CDF90F4B0D4A0B48702101F0C7F90D4B99
:1013F0000A4A0848712101F0C1F9044B044A054822
:10140000682101F0BBF959702270DDE724A10010BA
:1014100080A3001040A100108CA100105CA300105C
:1014200098A10010A4A1001070B506000D001400D2
:10143000002914D0002A14D04368806898470028F7
:1014400006D0220029003000FFF79EFF280007E0A9
:101450002A0021003000FFF797FF200000E0100075
:1014600070BD0800FCE70000F0B583B005000092F5
:1014700001930AAB1C780BAB1F78002C26D00368B5
:101480005A7B944207D10123002B19D1002C3AD169
:10149000200003B0F0BD002C0CD01A7B944209D878
:1014A0001A6863001B19033BD3189B78002BEBD001
:1014B0000123E9E73C4B3D4A3D48682101F05EF9D4
:1014C0003C4B3D4A3D48672101F058F903689C7B3D
:1014D000002CDBD011D01A7B94420ED81A68610020
:1014E00009190339521851789973002900D1D97319
:1014F0000023937053701370C8E72B4B2B4A2C4872
:10150000682101F03BF9002C37D02B681B7B9C42F3
:1015100033D8AB682A4AA21812019B18009A1A60A5
:10152000019A5A60089A9A60099ADA602E68002C2B
:1015300029D02ED0337B9C422BD8336862001219FD
:10154000033A9B1800229A705A701A70717B22001D
:101550003000FFF769FF7073844299D1287D009AAB
:10156000019B00F039FC061E01D0002F17D00C9B08
:10157000002B00D18CE71E708AE7124B124A0F48ED
:101580003C2101F0FBF8114B114A0948A52101F05B
:10159000F5F8054B054A0648682101F0EFF8286880
:1015A000210000F049FEE2E724A1001080A3001012
:1015B00040A10010BCA100108CA30010C8A0001016
:1015C000FFFFFF0F00A1001014A30010C4A0001023
:1015D00070A30010F0B5DE4657464E464546E0B5CE
:1015E0008BB0099000230893B54B8200D55854E086
:1015F000B44BB54AB5483F2101F0C0F8B44BB54AE9
:10160000B5483C2101F0BAF8002F01D1002E6BD172
:10161000002100F007FEA0421CD143461A685B6817
:101620000692079343469B689A464346DB689B466F
:101630005346002B14D0002C18D02B681B7B9C42E7
:1016400014D8EA68631ED35C08931B021843286110
:10165000002015E0A14BA24A9F488E2101F08EF890
:10166000A04B9F4A9C48922101F088F8984B9E4AD3
:101670009948412101F082F800239B469A460020B8
:101680006B68BFF35F8F00221A6089F3108853469E
:10169000002B33D1002800D10BE100F049FB020000
:1016A0000B1EA5DB00200021069007916868EFF370
:1016B000108972B601680029FCD0BFF35F8F2868DB
:1016C000447B002CD8D099D0017B8C4296D8AE6850
:1016D000864961180901B046884441460E684F6842
:1016E000B61A9F41002F8FDD43461A685B68099840
:1016F00000F072FB00239B469A46C1E7089B1B0241
:101700002343984659461800D04706000F006A68E0
:10171000EFF3108972B6136859424B41D9B2002BCE
:10172000F9D1BFF35F8F002F1EDB002F46DD2B6941
:10173000002B47D043456DD100F0FAFA02000B1E92
:101740006EDB92197B41002B70DB002B72DB0021DA
:10175000049101310391029459460191514600913F
:101760002800FFF781FE4CE02B69002BDDD04345BC
:1017700014D1069A079B921BBB41002B14DB002B54
:1017800016DB002104910131039102945946019125
:10179000514600912800FFF767FE32E0544B504A53
:1017A0004D48A12100F0EAFF01225242514BE6E7E9
:1017B000444B454A45483F2100F0E0FF002F01D14E
:1017C000002EB4D12B68002C4FD05A7B944237D1D5
:1017D0000121002949D1DA7B002A4CD19A7B002AC9
:1017E00003D1DA7B002A58D19C73DC73002C5AD0C9
:1017F0002B681B7B9C4256D8EA68013C135D013381
:10180000135500232B616A68BFF35F8F136089F360
:10181000108842E7364B324A2F48A42100F0AEFF31
:10182000284B294A29483F2100F0A8FF01225242B3
:10183000304B8AE7234B244A24483F2100F09EFF87
:10184000002C0CD01A7B944209D818686200121937
:10185000033A82189278002ABBD00121B9E7264BBF
:10186000264A2748682100F089FF264B264A24484B
:10187000F62100F083FF002A09D0197B8A4206D89E
:10188000186851008A18033A82185470A6E71A4B58
:101890001A4A1B48682100F071FF1C4B1A4A18486D
:1018A000FB2100F06BFF0A4B0F4A0B48412100F06F
:1018B00065FF0BB0F0BCBB46B246A946A046F0BDE2
:1018C000F0170020989B0010E0A20010B49B0010BD
:1018D00000A1001014A30010C8A00010E4A1001083
:1018E000F8A20010FCA1001038A30010FFFFFF0FAA
:1018F00008A20010FFFFFF7F24A1001080A30010AA
:1019000040A1001044A200104CA3001068A20010D7
:1019100010B50C4B5B68002B04D00B480A21FFF775
:1019200089FC10BD074C094A20682300102100F0F3
:101930008FFB032000F0F0F903212000FFF7B4FC37
:10194000EBE7C046F00B0020A81C0020111300108C
:1019500010B5064B5B68002B01D0044810BD044B4A
:10196000044A05485E2100F009FFC046F00B002044
:101970007CA2001020A30010C8A00010F0B5DE4625
:1019800057464E464546E0B58BB0804616001F00D0
:10199000149B9A46159B994616AB1B789B461F23B2
:1019A00002AA9446634400221A702DE0002809D050
:1019B00042461268127B904204D84246D168421EC9
:1019C0008A5C43E0414B424A4248412100F0D6FE46
:1019D00007984EE0361BAF41002F07DB002F13DACC
:1019E0003D4B3E4A3E483F2100F0C8FE012676426C
:1019F0003C4FF3E7384B394A39483F2100F0BEFEEF
:101A0000002D51DB26002F0043465A68EFF3108467
:101A100072B6136859424B41D9B20791002BF8D1E5
:101A2000BFF35F8F1F3302AA9446634404930023DD
:101A3000039302934B4601935346009332003B00BD
:101A40004046FFF711FD031EB0D102004146496830
:101A5000BFF35F8F00250D6084F31088002B29D021
:101A60001F2302A98C4663441B78002BB0D11202BD
:101A70001043002B20D05B46002B1DD04946D04799
:101A800004000D0003000B431DD00029A2DB00F071
:101A90004FF902000B1EADDBA4185D41002DAFDA3B
:101AA000012464420F4DABE70B4B0C4A0C483F211D
:101AB00000F064FE012040420BB0F0BCBB46B246D1
:101AC000A946A046F0BD0798F6E7C04600A1001061
:101AD00038A30010C8A00010989B0010E0A20010CE
:101AE000B49B0010FFFFFF7FF8B50400002961D010
:101AF0004268EFF3108572B6136858424341D8B27A
:101B0000002BF9D1BFF35F8FCBB22268567BB34273
:101B10001BD10120002847D0206988422AD0090A19
:101B2000C9B2002B2DD02068007B834229D8E668FB
:101B3000581E305C88422AD000206368BFF35F8F54
:101B400000221A6085F31088F8BD002B0CD0167B9C
:101B5000B34209D817685E00F618033EBE19B6787E
:101B6000002ED7D00120D5E7134B144A1448682122
:101B700000F004FE134B144A2C211448FF3100F0EE
:101B8000FDFD134B134A1148412100F0F7FD1900E8
:101B9000100000F051FB0028CFD10F4B0A4A9921C9
:101BA0000A48490000F0EAFD23698B42C5D10023B1
:101BB0002361C2E70020C7E724A1001080A3001022
:101BC00040A10010A0A20010C8A20010C8A00010E0
:101BD00000A1001038A30010C4A20010407D70477F
:101BE00070B584B005000C00EFF30583002B1ED107
:101BF000FFF7AEFE002302930193224B00932A00CD
:101C00002300FFF7BBFE061E23DD20BFFFF7A0FE6B
:101C10003100FFF769FF1C4B5B6A9C422DD81A4AC2
:101C2000926AAA422CD29C4225D0012026E0164B73
:101C30005B6A994209D8144A926A824207D2994251
:101C400001D001201AE0002018E0002016E0012059
:101C500014E00D4B5B6A9C4209D80B4A926AAA4277
:101C600007D29C4201D0012008E0002006E00020BD
:101C700004E0012002E0002000E0002004B070BD7C
:101C80000120FBE7E91200100040054070B5EFF3BA
:101C900005801038EFF3108C72B6194B1B68002BBF
:101CA000FBD0BFF35F8F01221300834015494B63C4
:101CB00015490B60154909780C00C440224213D025
:101CC000104A546A124A8500AA58944205D3114A10
:101CD000AA580E4C9943217007E00A4A031D9B0045
:101CE00099589950002200E00022BFF35F8F044B07
:101CF000002119608CF31088002A00D0904770BD35
:101D0000280100D0004005403C7005400C1E022018
:101D1000B41C00201012002010B50100024A034B31
:101D20001800FEF7B1FE10BDA4A30010071E02208C
:101D3000044B5B6A034A906A1900536A9942F9D1CD
:101D40007047C0460040054070B504000E00EFF338
:101D5000108572B61B4B1B68002BFBD0BFF35F8F47
:101D6000002E1CD02000FEF785FF174B83420BD0BE
:101D700019002000FEF798FF01212000FEF76AFFFE
:101D80000123A340114A1360114BA400E650BFF396
:101D90005F8F0C4B00221A6085F3108870BD0C4BCE
:101DA000A2000021D1500122A2400A490B7893439E
:101DB0000B7005492000FFF7B9F800212000FEF75D
:101DC00049FFE4E7280100D08D1C00103860054071
:101DD000101200200C1E0220F0B5DE4600B584B0C3
:101DE0000400150001921E000293FFF7A1FF039566
:101DF0008E4202D84ED185424CD9EFF3108B72B689
:101E0000274B1B68002BFBD0BFF35F8F254A177849
:101E10000125A540EBB23B431370234B5D63221DAC
:101E200092000199D150214AA100029888501B6A62
:101E30002B4212D11C4B1B6C2B4208D00020BFF34D
:101E40005F8F174B00221A608BF3108823E0184B2A
:101E5000184A1948C52100F091FCFFF769FF8E422E
:101E600014D802D1039B834210D80E4B1B78BB427F
:101E70000ED00D4B1D625D631F2222400123934053
:101E80000E4A1360074B1F700120D8E70020D6E7E9
:101E90000120D4E7012004B080BCBB46F0BDC046A1
:101EA000280100D00C1E022000400540B41C002078
:101EB000C8A3001030A40010ECA3001080E200E0E2
:101EC000EFF3108C72B60B4B1B68002BFBD0BFF3EB
:101ED0005F8F01238340084A136208490A789A43B6
:101EE0000A70BFF35F8F034B00221A608CF31088D7
:101EF0007047C046280100D0004005400C1E02205B
:101F000010B500291DD0037B99421AD804684B00F4
:101F10005B18033BE418002919D0002A1DD0914218
:101F200021D0002A25D0037B9A4222D80068530092
:101F30009B18033BC3189970217800291FD1227088
:101F400010BD104B104A1148682100F017FC104BCF
:101F5000104A0E486F3100F011FC0F4B0D4A0B4830
:101F6000702100F00BFC0D4B0A4A0848712100F06B
:101F700005FC044B044A0548682100F0FFFB59703A
:101F80002270DDE724A1001038A5001040A1001048
:101F90008CA1001024A5001098A10010A4A100108D
:101FA00070B506000D001400002914D0002A14D0CA
:101FB000436880689847002806D022002900300036
:101FC000FFF79EFF280007E02A0021003000FFF7FE
:101FD00097FF200000E0100070BD0800FCE7000043
:101FE00010B50023437301338373037BC373012351
:101FF000027B9A4213D9002B0BD0027B934208D864
:1020000001685A00D218033A8A180133DBB25370C0
:10201000EEE70C4B0C4A0D48682100F0AFFB002A9C
:1020200009D0924207D8016853009B18033BCB1894
:1020300000225A7010BD034B034A0448682100F087
:102040009DFBC04624A1001038A5001040A100103F
:1020500010B5017342608360FFF7C2FF10BD00003E
:1020600070B50400081E00D170BD002931D0237B5B
:1020700099422ED822684B005B18033BD3185A783C
:10208000002AF1D02BD0237B9A4228D82168530014
:102090009B18033BCB185D7800215970002824D091
:1020A000237B984221D8216843001B18033BCB189F
:1020B0000021597001002000FFF772FF060029007F
:1020C0002000FFF7CDFF020031002000FFF768FF7E
:1020D000CAE7094B094A0A48682100F04FFB064B42
:1020E000064A0748682100F049FB034B034A0448AD
:1020F000682100F043FBC04624A1001038A5001061
:1021000040A1001070B505000C00160000292ED06B
:1021100033D0037B994230D8036849000919033949
:102120005B185A78002A2ED19A78002A31D1197872
:10213000FFF796FF0300002E0AD0EA7B002A2ED17B
:10214000AA7B002A03D1EA7B002A3AD1AC73EC7354
:10215000002B3CD1002C4DD02B7B9C424AD82A68C6
:1021600063001B19033BD31800225A7070BD244B27
:10217000244A2548382100F001FB244B244A2548F5
:10218000682100F0FBFA244B1E4A1F483A2100F058
:10219000F5FA224B1B4A1C483B2100F0EFFA002ABB
:1021A00009D0297B8A4206D82E6851008A18033A42
:1021B000B2185470C4E7154B154A1648682100F050
:1021C000DDFA174B0F4A1048422100F0D7FA002BD6
:1021D0000AD02A7B934207D82A6843001B18033B86
:1021E000D31800229A70B5E7084B094A09486821BC
:1021F00000F0C4FA054B064A0648682100F0BEFA12
:102200004CA4001010A5001054A4001024A100102C
:1022100038A5001040A100108CA40010B4A4001038
:1022200068A2001070B504000A00457B2900FFF782
:1022300069FF6073280070BD70B50400002966D086
:10224000437B8B420ED0002911D0037B99420ED8DC
:1022500005684B005B18033BED18AB78002B0CD1E5
:10226000002055E00121FFF7DDFF012050E0294B60
:10227000294A2A48682100F081FA002B1FD0027BEE
:1022800093421CD800685A00D318033BC218C35CA1
:102290008B421AD0002B1BD0227B934218D8206887
:1022A0005A00D318033BC01843788B4216D0002B3A
:1022B000F0D11B4B1B4A1C486B2100F05FFA154BF9
:1022C000154A1648682100F059FA6B78137007E038
:1022D000104B114A1148682100F050FA6B78437096
:1022E0000023AB706B7001222000FFF70BFF020090
:1022F000617B814205D02000FFF752FE6073012010
:1023000006E00A4B074A0848712100F037FA00201E
:1023100070BDC04624A1001038A5001040A10010D7
:10232000309F0010F8A4001054A40010D8A400108E
:10233000F8B5DE4657464E464546E0B506000F0066
:1023400015000A9A934250D31A0E92461B029846E1
:102350000A9A00234046514601F018FC8146740059
:10236000A419A4002F4B9C4664446368834200D2A6
:102370006060331FDBB29B46012B3CD9C0239B011D
:102380002343802212011A60274BB200D158002942
:1023900007D0586901F0BCFB431C5800C018033833
:1023A000FDD26D0123685D40E0222A4080235B015D
:1023B00023431A605A46012A28D980239B012343CC
:1023C000802212011A604B4663604A460023404651
:1023D000514601F0DBFB144BB60098510120F0BCD4
:1023E000BB46B246A946A046F8BD104B104A11485C
:1023F000332100F0C3F9012FC0D1C0239B01234337
:1024000003221A60A368DB07FCD5CAE7216879407C
:1024100003220A401A60A3680125BD401D42FAD07C
:10242000CBE7C046008000402C13002044A50010DC
:102430009CA5001058A5001030B583B00C2000F00A
:1024400011F9FEF701FB00280DD0002304E02E4A0D
:1024500099002E4888500133092BF8D92A4B2C4A71
:102460005A6203B030BD2B4B00229A6700F06CF922
:10247000294B01221A60274B5B6C012BFBD1274BA8
:1024800003221A60234B9B6B012BFBD1013300937A
:102490000433234A0121234800F054F80523009314
:1024A000214A0121214800F04DF8214B00930022E0
:1024B00002210420FFF73CFF1E4D00952B00002257
:1024C00001210520FFF734FF104C00942300002267
:1024D00000210720FFF72CFF009423000022002199
:1024E0000820FFF725FF0A4B00932300002200215C
:1024F0000920FFF71DFF00952B0000220021062078
:10250000FFF716FFADE7C0462C130020006CDC027D
:102510001BB70000008000403CB0004030B00040DD
:10252000002F685900800240008C864700C002409E
:10253000001BB70040597307014B8000C05870471B
:102540002C130020F0B5C64600B504000E0017009D
:102550001D00374801F0DCFA8046364BFA18364B3E
:102560009A4239D80100380001F0D2FA0200103A3C
:1025700098235B009A4235D86B1E062B38D8069BF1
:10258000013B062B34D83F09474537D32D04069B22
:102590001B031D432368002B36DB284B9C4244D091
:1025A00080235B01264A1360264A1360264A9268FC
:1025B00019009143FAD12660A060221DC0239B011F
:1025C000134321221A602268002AFCDAE5600822FF
:1025D0001A6080BCB846F0BD1C4B1D4A1D48112135
:1025E00000F0CCF81C4B1A4A1A48192100F0C6F822
:1025F0001A4B174A17481C2100F0C0F8184B144A10
:102600001448232100F0BAF822683F231340B34254
:10261000C3D1A3681B051B0D8342BED1E368EE2224
:10262000D2021340AB42B8D1D3E780239B01B9E774
:10263000001BB70080E84BD380F8A93200C00240ED
:1026400000E0004000F0004000C00040ACA50010D9
:10265000D0A600100CA600104CA6001068A6001012
:10266000B4A6001080239B000343014AD362704745
:1026700000800540024B1A68024B5A607047C04602
:10268000C81700200080054010B50200164B8020BE
:10269000C0051860154B1648186000290AD0154B64
:1026A000E021C9041960002A09D1124B80221206C8
:1026B0001A6010BD0C4BE021C9041960F3E7530107
:1026C0009B1A9800801800010B4B186080235B0454
:1026D000984202D3084B094A1A60FFF7CBFF054B1B
:1026E0008022D2051A60E4E700B0054008200140CE
:1026F000FCFF010000A00540C8170020FFFFFF00FD
:1027000010B5030010000C4A8024E4051460002B6F
:102710000DD001221343094A094CD461094C5C4095
:102720001462516293620021FFF7AEFF10BD034BAC
:102730000022DA61F7E7C04600B00540008005409E
:10274000D3C007B02D3FF84F064BAA2212011A60E2
:102750002F22DA60044B054A1A60024B5B68002B9B
:10276000FBDA7047004002400060024000B0FA000F
:1027700000BEFDE710B5FFF7FBFF000030B583B0EA
:102780000D001900002A0DD0084B002A0CD0084C6F
:10279000019200932B000200200002F0DDFA0120DC
:1027A000FFF7E6FF034BF0E7024AF0E7DCA6001074
:1027B000ECA60010E8A6001070B52B4B2B4A1A604F
:1027C0002B4B2C4A1A602C4B9A682A4B9343FAD114
:1027D0002A4C01E008CC9847294B9C42FAD3FFF7DA
:1027E0002BFE234B274A1A60234B9B68DB43DB01FC
:1027F000FAD1254B40229A675A671A67DA66234C4A
:1028000009E0234B234A24488721FFF7B7FF200024
:10281000FEF718FD0834214B9C4209D22368002B97
:10282000F5D0012BEDD12000FEF71AFD0C34F2E7B4
:102830001B4DA9681B4CC022200002F035F9AC608A
:10284000EFF30583002B00D000BEFEF75FF9FEF723
:10285000CDFCFFF75DF8144C01E008CC9847134B12
:102860009C42FAD370BDC04600E00040BFCDFBFEE5
:1028700000F00040FE7F3C0000C00040A00C0020A3
:10288000B00C0020FFFFFF0100F00140900C002081
:102890001CA70010A0A700103CA70010A00C00204F
:1028A00000ED00E000000020B00C0020BC0C002077
:1028B0000FB400B583B0084802F01EFA049B002B49
:1028C00007D005A90191180002F026FA034802F08A
:1028D00013FA0120FFF74CFF80A70010949B001013
:1028E00010B50148FFF7E4FF90A70010704710B53E
:1028F000002802D00B684968984710BD01000020ED
:1029000007E083001B185B00501C08601078C0189B
:1029100030380A681378303BDBB2092BF1D97047A5
:10292000F0B5DE4657464E464546E0B583B0934681
:102930001F000C9B9A460D9C0E9B99460F9B9B0774
:1029400003D0B8460F00060022E00192A346884655
:102950004E46B9460700B44207D2551C4B46414685
:102960002020B84701342A00F5E73D004F465C4679
:10297000019B9B46B1464646B84637002E0007E00D
:10298000013C551C5346185D43463900B0472A00A8
:10299000002CF5D135003E0047460F9B9B0707D41E
:1029A000100003B0F0BCBB46B246A946A046F0BD3D
:1029B000B0464E46B9462F005D46531BB342EFD298
:1029C000541C4B4641462020B8472200F5E7F0B59D
:1029D000CE46474680B585B0944698460C9D0D9CE2
:1029E0000EAB1B789946109A119B129EB7071CD408
:1029F000002B0CD0F7070AD54F46002F02D10C3719
:102A0000374204D0013B02E030272F550134944275
:102A100001D21F2CF8D9F70707D59C4205D21F2CED
:102A200003D830272F550134F5E7F70615D577057C
:102A300005D4002C03D0944224D09C4222D00F9A7B
:102A4000102A2BD00F9A102A30D00F9A022A35D094
:102A50001F2C02D830222A5501341F2C05D84A4693
:102A6000002A31D02D222A55013403960293019475
:102A7000009543466246FFF753FF05B0C0BCB94618
:102A8000B046F0BD621E012C06D00F9F102F01D062
:102A90001400D4E7023CD2E71400D0E7B206D1D448
:102AA0001F2CCFD878222A550134D1E7B206CCD5D5
:102AB0001F2CCAD858222A550134C9E71F2CC7D861
:102AC00060322A550134C3E7720703D52B222A55F9
:102AD0000134CAE73207C8D520222A550134C4E799
:102AE000F0B5DE4657464E464546E0B593B08146C2
:102AF0008A46089209931CAB10CB1B789B461E9DFF
:102B0000219B9846002C03D1102342469A439046BD
:102B10008023DB0046461E4042461A4212D0002C5B
:102B200022D000260EE03031CBB2771C0AAA935592
:102B30002900200000F0ECFFAC4216D31F2F14D860
:102B40003E0004002900200000F0E2FFC9B209297C
:102B5000E9D943469B0605D541235B18DBB20A3B06
:102B6000DBB2E2E76123F8E7270043460693209BA8
:102B700005931F9B049303955B46029301970AAB51
:102B80000093099B089A51464846FFF720FF13B06F
:102B9000F0BCBB46B246A946A046F0BDF0B5DE4645
:102BA00057464E464546E0B595B0089009910A92C1
:102BB0000B931E9E1F9C20AB1B789B46229B994625
:102BC000239D269B9A463300234303D1103352465C
:102BD0009A4392468023DB0057461F4052461A42D2
:102BE00019D0330023432DD0002714E03032D3B264
:102BF0007A1C90460CAAD3554A462B00300021007F
:102C000000F0C4FFA5421FD819D043461F2B1BD884
:102C1000474606000C004A462B003000210000F019
:102C2000B5FFD2B2092AE1D953469B0605D5412307
:102C30009B18DBB20A3BDBB2DAE76123F8E7B14568
:102C4000E3D901E00023984653460693259B05935C
:102C5000249B04934B4603935B46029343460193A4
:102C60000CAB00930B9B0A9A09990898FFF7AFFEEB
:102C700015B0F0BCBB46B246A946A046F0BD000068
:102C8000F0B5DE4657464E464546E0B591B0834620
:102C90008A460C9298461A9C08941B9D099522001E
:102CA0002B002000290001F0FCF9002800D0E5E00D
:102CB00001225242D74B2000290001F0EDF90028F3
:102CC00000D0DBE001225242D34B2000290001F06A
:102CD000CDF9002800D0D1E000220023089E30006A
:102CE000099D290001F0C2F9002800D0DDE0089A12
:102CF000099B069207938023DB001E9A1A400D92CF
:102D00001E9A1A4201D106231C93069807990400C3
:102D10000D000A000600024300D1D1E0080D400575
:102D2000400DBE4CA44660440A03120BBC4B134337
:102D30001F0001F0C9F9BB4ABB4B01F054F9BB4A73
:102D4000BB4B01F029F904000D000022B94B300003
:102D5000390001F018F9B84AB84B01F044F9020003
:102D60000B002000290001F017F901F0C5F9814698
:102D700001F0AAF904000D00B14AB24B01F033F999
:102D80000022B14B01F008F901F0B6F90600AF4A94
:102D9000AF4B2000290001F026F904000D0030009F
:102DA00001F092F9AB4AAC4B01F01DF902000B00A7
:102DB0002000290001F0E7F804000D0002000B00DC
:102DC00001F011F90A900B91A44BF31800261F058E
:102DD00022002B002000290001F0DEF80E900F9158
:102DE00022002B0000208021C90501F0CCF804004E
:102DF0000D0000229A4B0A980B9901F0D6F8002298
:102E0000984B01F0C9F802000B000A980B9901F0E9
:102E1000CCF80022944B01F0BFF802000B000A9896
:102E20000B9901F0C2F802000B002000290001F00C
:102E3000B3F802000B000E980F9901F0B6F80022CB
:102E4000774B01F0A9F832003B0001F0CCF8060006
:102E50000F0004000D00069A079B01F01DF90028E1
:102E600030D001235B429C46E14400227D4B300080
:102E7000390001F09AF804000D0023E01E9B049332
:102E80001D9B03931C9B0293089A099B009201933C
:102E900043460C9A5146584600F0FCF811B0F0BC7D
:102EA000BB46B246A946A046F0BD002300240693C7
:102EB0000794069680231B069C46654407951AE7EF
:102EC000002399464B466333C62B1ED804261E9B0F
:102ED0001B0526D52B0023430FD0644A644B06986C
:102EE000079901F0D1F8002879D00022614B0698AB
:102EF000079901F0BBF8002871D01C9B4B4506DDFB
:102F00004A469B1A013B1C9303E00526DFE700239A
:102F10001C938023DB001E9A1A431E920026002376
:102F200099461D9B9E4264D29F1B02231E9A1A4003
:102F30000A921E9A134202D0002E00D000274B4660
:102F4000002B07D022002B000698079901F02DF8DE
:102F500006900791002200230898099901F086F84D
:102F6000002848D1444B1E9A1340049303971C9B9E
:102F70000293069B079C0093019443460C9A51468A
:102F8000584600F087F8002E00D187E71E9B9B066D
:102F90003DD54525441C4346020051462800D847EC
:102FA0004A46D317D2185A4005230593013E04968A
:102FB000002303930A3302934B46DB0F01930092E5
:102FC0004346220051465846FFF78AFD0A9B002BD4
:102FD00000D163E702005F460C9E1D9D54E01C9BE0
:102FE000002B9ED00D9B002B9BD01C9B013B1C9368
:102FF00097E7002799E7069C079D2200290080207B
:103000000006844661440B0006920793AAE76525F3
:10301000C0E7C046FFFFEF7FFFFFEFFF01FCFFFFB0
:103020000000F03FFB799F501344D33FB3C8608B3F
:10303000288AC63F0000F83F61436F63A787D23FED
:1030400071A379094F930A400000E03F1655B5BBC4
:10305000B16B0240EF39FAFE422EE63FFF0300005B
:1030600000002C4000002440000018402D431CEBC1
:10307000E2361A3F80842E41FFF7FFFF541C43467F
:1030800051462020B8472200931BAB42F6D31000D4
:1030900004E7C046F0B5DE4657464E464546E0B525
:1030A00095B00690079193469946209F1E9A1F9BC4
:1030B0001000190000F0F5FF002831D10122524222
:1030C000BF4B1E981F9900F0D1FF002837D1012275
:1030D0005242BC4B1E981F9900F0DEFF00283DD1E4
:1030E0000022B94B1E981F9900F0D6FF002850D13E
:1030F0000022B64B1E981F9900F0B8FF002848D157
:10310000002200231E981F9900F0B0FF002850D124
:1031100000239846229B5B0500D4B6E0002458E0CB
:10312000229B0393219B029303230193A84B0093BB
:103130004B465A4607990698FFF7F2FB0EE1229B91
:103140000393219B029304230193A24B00934B46CC
:103150005A4607990698FFF7E3FBFFE00423229AFB
:103160001A4022990B4210D09B4B002A0FD0042208
:103170002299039121990291019200934B465A465C
:1031800007990698FFF7CCFBE8E0944BEDE70322A4
:10319000EEE7229B0493219B039302971E9B1F9CA7
:1031A000009301944B465A4607990698FFF768FD2D
:1031B000D4E01E9A1F9B0020002100F0E4FE1E9028
:1031C0001F9101239846A5E70CAB30221A55013F09
:1031D00001341F2C01D8092FF6D81E981F9900F032
:1031E0008BFF050000F070FF02000B001E981F9976
:1031F00000F0C9FE7A4BFA009B181A685B680A92C5
:103200000B9300F0F0FE0890099100F099FF060082
:1032100000F056FF02000B000898099900F0B3FE79
:103220000890099100226F4B00F036FF00282ED045
:103230000136300000F044FF02000B000A980B99A1
:1032400000F01AFF002801D001350026002F2CD1F4
:10325000280000F039FF02000B001E981F9900F0B3
:1032600092FE06000F0000225E4B00F0FFFE0028D9
:1032700046D100225B4B3000390000F00DFF0028E2
:103280003ED1EB073CD501353AE0062746E7002260
:10329000544B0898099900F0E9FE0028D6D1002E79
:1032A00001D0F307D2D50136D0E7AA461F2C11D89A
:1032B000013F0A21300000F02BFC651C30310CABC3
:1032C00019550A21300000F023FC092E0ED9060002
:1032D0002C00EBE755461F2C0CD87B1E002F09D085
:1032E0000CAA302111551F000134F4E72B0055467C
:1032F0001C00F0E71F2C03D80CAB2E221A5501340A
:103300001F2C10D80A21280000F0DAFB661C30318F
:103310000CAB19550A21280000F0D2FB051E01D084
:103320003400EDE734000323229A1340012B1CD014
:103330001F2C06D84346002B32D00CAB2D221A5539
:103340000134229B0393219B029301940CAB0093C5
:103350004B465A4607990698FFF7E2FA15B0F0BCBB
:10336000BB46B246A946A046F0BD219B002B13D018
:103370004346002B02D10C3313420FD0219B013B5B
:103380002193190003E00CAB30221A5501348C4212
:10339000CED21F2CF7D9CBE72199F8E72199F6E790
:1033A000229B5B0704D50CAB2B221A550134C8E7CE
:1033B000229B1B07C5D50CAB20221A550134C0E750
:1033C000FFFFEFFFFFFFEF7F65CDCD4165CDCDC1A5
:1033D000BCA70010C0A70010B0A70010B8A700102D
:1033E00068A900100000E03FF0B5DE4657464E46A3
:1033F0004546E0B593B082468B469046119300292E
:1034000000D100E300275446119B1878002800D112
:10341000FCE2252809D07D1C43463A005946A047C6
:10342000119B013311932F00EEE701331193002517
:10343000119A11780B00203BD8B2102803D88300D2
:10344000C248C3589F460B00303BDBB2092B2CD936
:103450002A292FD000230A93119B1A782E2A39D0BB
:1034600000239946119A1378683BD9B2122976D86D
:103470008B00B749CB589F4601231D43013211925F
:10348000D6E702231D4301321192D1E704231D43E5
:1034900001321192CCE708231D4301321192C7E794
:1034A00010231D4301321192C2E711A8FFF726FA3B
:1034B0000A90D1E71C9B1A1D1C921B68002B04DB91
:1034C0000A93119B01331193C6E7022215435B4215
:1034D0000A93F6E78022D20015435A1C11925A78BB
:1034E0001300303BDBB2092B04D92A2A07D0002372
:1034F0009946B7E711A8FFF701FA8146B2E71C9B8E
:103500001A1D1C921B68002B04DB9946119B01338A
:103510001193A7E70023F8E780235B002B43511C9E
:10352000119152786C2A01D01D0018E0C0239B0035
:103530001D430131119112E080232B43511C119145
:103540005278682A01D01D0009E0C0231D430131D3
:10355000119104E080235B001D4301321192119B05
:103560001878672816D8252826D30300253BDAB219
:10357000422A21D89300774AD3589F4680239B0044
:103580001D4301321192EAE780235B001D430132A3
:103590001192E4E778280FD869280DD30200693A20
:1035A000D2B2012393406C4A13420FD11A0600D5C0
:1035B00003E25B0500D594E17D1C43463A00594681
:1035C000A047119B013311932F001DE7782809D0E4
:1035D000622838D06F2838D0582838D010239D431F
:1035E0000A2600E01026582833D0692803D0642822
:1035F00001D00C2295436A0501D501229543692823
:103600002AD0642828D0AA0500D5A7E0EA0500D56D
:10361000C0E06A0600D4D2E01C9A111D1C9111680A
:10362000FF220A4005950A9B04934B46039302969A
:1036300000230193009243463A0059462000FFF7C9
:103640004FFA070027E00226CDE70826CBE7102631
:10365000C9E720221543C8E7AA0520D4EA0550D4BB
:103660006A0666D51C9A111D1C911168FF220A403A
:10367000D0171118414005950A9B04934B460393BC
:103680000296D20F0192009143463A00594620001B
:10369000FFF726FA0700119B01331193B4E61C9A39
:1036A000073207218A43110008311C9111685368C1
:1036B0009C46DB170C930D930C9A0D9B1000484011
:1036C0000E90624653400F930E980F990C9A0D9BE3
:1036D000801A99410E900F9108950A9B07934B46CB
:1036E00006930496002305936346DA0F0292009036
:1036F000019143463A0059462000FFF74FFA070070
:10370000C9E71C9A111D1C911268D017111841406D
:1037100005950A9B04934B4603930296D20F0192A0
:10372000009143463A0059462000FFF7D9F90700B7
:10373000B1E72A0605D51C9A111D1C910023D25E03
:1037400096E71C9A111D1C91126891E7C8A70010FA
:103750000CA8001058A80010419000001C9A0732D5
:1037600007218A43110008311C9108950A9B079391
:103770004B46069304960023059302935368126800
:103780000092019343463A0059462000FFF706FA9B
:10379000070080E71C9A111D1C9105950A9B049354
:1037A0004B4603930296002301931368009343460C
:1037B0003A0059462000FFF793F907006BE72A0605
:1037C00006D51C9A111D1C9112681204120C29E7CF
:1037D0001C9A111D1C91126824E746281AD01C9BC4
:1037E0000733072293431A0008321C9204950A9A61
:1037F00003924A4602921A685B680092019343461C
:103800003A0059462000FFF745FC0700119B0133A1
:103810001193F9E520231D43E1E7672801D04728EC
:1038200002D180231B011D43452801D0472801D127
:1038300020231D431C9B0733072293431A000832A1
:103840001C9204950A9A03924A4602921A685B688F
:103850000092019343463A0059462000FFF710FAC0
:103860000700119B01331193CEE502231A002A4071
:1038700092462B421FD001251C9B1A1D1C927A1CBC
:103880009146187843463A005946A0475346002BC4
:1038900016D1119B013311934F46B5E5561C434693
:1038A00059462020B8472B0032005D1C9C42F5D8B9
:1038B0003C001700E0E701233A0027000A9CF4E7E8
:1038C0004A46A1460A9C06E0571C4346594620201A
:1038D000C84735003A006E1CAC42F5D84C469146BC
:1038E000D7E71C9B1A1D1C921E684B46002B00D16B
:1038F000013B310001E0013113000A78002A02D0B7
:103900005A1E002BF7D1891B10918023DB002A005F
:103910001A4092461D4203D0494501D94B461093A7
:1039200002231A002A400B922B4205D03A00574638
:1039300023004C46994620E03A00109B5F46B34670
:10394000260006E0541C434639002020B0472B00D7
:1039500022005D1C0A999942F4D834005E46BB46A9
:103960001095574623004C46994606E01C00013648
:10397000551C43465946C8472A003078002804D0D1
:10398000002FF4D0631E002CF0D117004C460B9B87
:10399000002B03D1119B0133119335E50A9F109B36
:1039A00006E0561C434659462020A0472B00320013
:1039B0005D1C9F42F5D81700ECE721232B431C9A8E
:1039C000111D1C9112680593082304934B46039321
:1039D0001023029300230193009243463A00594674
:1039E0002000FFF77DF80700119B013311930BE5D1
:1039F0007D1C43463A0059462520A047119B0133C0
:103A000011932F0000E50B4B9A46FBE4A246474575
:103A100002D343465A1E00E03A004346594600206E
:103A2000D047380013B0F0BCBB46B246A946A0460A
:103A3000F0BDC046ED28001000B585B0029003919E
:103A400001210448009313004A4202A9FFF7CCFC6D
:103A500005B000BDEF28001001480421014B1847B4
:103A6000200C0020893A001010B5010018231B8893
:103A700014221088984710BD10B5010018231B8828
:103A800016221088984710BDF0B5C64600B507004D
:103A90000E0000250123984600E00135B5420AD208
:103AA000AC003C192068FFF7DFFF20600028F4D14C
:103AB00000239846F1E7404680BCB846F0BD0000C0
:103AC000124A936F9B0815D29066D166002905D0E3
:103AD000FFE7FFE7FFE7516F106F704704B58021E4
:103AE0000906C2175140002800D0C84305F0F8FF6E
:103AF000002104BDF0B5146E556E576F166FFFF7B9
:103B0000E3FF1466556657671667F0BD000000D0E6
:103B1000114A936F9B0813D210665166002905D095
:103B2000FFE7FFE7FFE7516F106F704704B500280C
:103B300001D00020C04305F0D3FF002104BDC046E2
:103B4000F0B5146E556E576F166FFFF7E5FF1466EC
:103B5000556657671667F0BD000000D094464A4A84
:103B6000926F9208624601D228E0C046F0B5464EF8
:103B7000346E756E776F366F00F020F89446424AC7
:103B800014665566576716676246F0BD94463E4A0E
:103B9000926F9208624601D254E0C046F0B53A4EA8
:103BA000346E756E776F366F00F04CF89446364A77
:103BB00014665566576716676246F0BD002B24DB16
:103BC00011D000293EDA00B5C943404200D101318D
:103BD00000F038F8C943404200D10131DB43524282
:103BE00000D1013300BD002AEBD1002801D100290A
:103BF00005D00020C90FC90701D1C043410800B555
:103C000005F05EFF0022002300BD00B500290ADB9D
:103C1000DB43524200D1013300F014F8C943404263
:103C200000D1013100BDC943404200D10131DB4325
:103C3000524200D1013300F005F8DB43524200D17B
:103C4000013300BD002923D1002B18D1002A0CD04C
:103C5000BC460D4F38667A6600210023FFE7FFE778
:103C6000FFE77A6F386F67467047002801D0074832
:103C7000010000B505F024FF0022002300BD020072
:103C80000B00002000217047000000D0FFFFFFFF65
:103C9000002B00D0BFE0130C28D1002AE7D080B45D
:103CA000114F39667A66FFE7FFE730B4040C7B6F8B
:103CB000396F1B0423433B667A66FFE7FFE7FFE7A4
:103CC000C04684B27B6F3D6F1B0423433B667A661C
:103CD000FFE7FFE7C04600232C042D0C7A6F386FF6
:103CE00000196941B0BC7047000000D0F0B594469F
:103CF0000025140E01D112020835140F01D1120152
:103D00000435940F01D192000235D40F01D1520035
:103D10000135D40B0134254F7C66254C3C660E0CD6
:103D200093B2FFE7FFE7FFE73C6F6643360C77038C
:103D3000BE467343DF0B5B04C01AB941130C7343D7
:103D4000DB18C91ACE086643360CB64493B27343E7
:103D50001F0F1B01C01AB941130C73431F0B1B0526
:103D6000C01AB941860D8F023E436643360C092DB9
:103D700024DB520A7243801A7703460A6643360CE4
:103D800016235B1BDE40DF40BF1964466643821B7F
:103D90007046043506330100D940A840C01900D34D
:103DA0000131A24206D20023F0BD0000000000D085
:103DB000FFFFFFFF121B0130F3D3F1E709277F1B41
:103DC000FE406446A2B27243801A00D20139220C2E
:103DD0007243130C1204821A99410B007046043589
:103DE00013370100F940A840801900D30131002B9E
:103DF00002D1A2420AD2F0BD013000D30131121B20
:103E0000FAD2013BF8D1A24200D2F0BD013000D37A
:103E10000131121BF7E7F0B51C0C00D080E00CB4A8
:103E200000251C0A04D11B02160E3343120208356A
:103E30001C0B04D11B01160F3343120104359C0BDC
:103E400004D19B00960F334392000235DC0B02D164
:103E500092185B4101351C00971864410134464FAC
:103E60007C66464C3C660E0CFFE7FFE7FFE7C0466A
:103E70003C6F6643360C7703BE4697B27743C01B50
:103E800000D20139C01B00D201399FB27743C91B50
:103E9000C91B170C77437E04FF0B801BB941CE086A
:103EA0006643360C0C2D33DBB644120B1F053A4328
:103EB0001B0B97B27743C01B00D201399FB27743E7
:103EC000C91B170C77433E043F0C801BB941860D7C
:103ED0008F023E43664329277F1BFE400C3D7746F9
:103EE000AF40BF1930BCA2B2ABB272437343801A69
:103EF0009941220C7243130C1204801A994102005A
:103F00000B000137001BA941F9D2781E0021F0BD3A
:103F10000C277F1BFE4077467F0BAF40FF19E0E781
:103F200000245D1C07D0144F7D663966FFE7FFE76C
:103F3000FFE7FFE73C6F95B29EB265436643401BC7
:103F4000B141150C1E0C6543664336042F0C3E43ED
:103F50002D04401BB141994204D202000B00200005
:103F60000021F0BD01D19042F7D3801A994101346C
:103F70009942F2D3F6E70000000000D0FFFFFFFFF8
:103F800048404140484018B41B4B5B68FC460193D5
:103F900008BD04DF5B42001018B4174B1B68FC46D9
:103FA000019308BD00DF654200109446134A926FEA
:103FB000920809D2624618B40F4BDB68FC460193A5
:103FC00008BD0CDF1D4500100C4AF0B5146E556E8F
:103FD000576F166F6246FFF7EEFF084A1466556684
:103FE00057671667F0BD18B4034B9B68FC460193F6
:103FF00008BD08DFC1430010A41A0020000000D053
:10400000FFB550404240504059404B40594000E0BD
:10401000FFB5154F4C00640D03D0BC4204D10C0316
:1040200014D80020090D09055C00640D03D0BC42C2
:1040300004D11C030AD800221B0D1B0501264B408E
:1040400009D44B4003D58B4200D18242FFBD994237
:10405000FCD19042FFBD0B43DB1803431343F5D063
:10406000C9434918FFBD0000FF07000000B5FFF776
:10407000CFFF804100BDC04600B5FFF7C9FF01D9A1
:10408000002000BD012000BD00B5FFF7B9FF01D938
:10409000002000BD012000BD00B5FFF7B1FF804149
:1040A00000BD012040054A00121804D85A00121819
:1040B00001D80020704701207047002070470000A1
:1040C0000021002805D17047C1174840401AFAD096
:1040D000C90713B5064B1B6898470CBC441CA2408B
:1040E0001005120B0349091B09051943114310BDA3
:1040F000A41B00201F04000010B54C00620D80239B
:10410000D218DB00D21A5B057E2A10DD9E3A13DA44
:10411000CC170903490819435242D14064000134C5
:104120001532202A05DAD0400843604310BD002034
:1041300010BD0846604310BDC80FC018013810BD3F
:1041400018B4044B5B6AFC46019308BD24DFCD46DE
:1041500000100000A41A002070B513231C78012C55
:1041600014D0012C14DC022C02DC1F4B1F4A936478
:104170001F48FFF779FC1F4B186070BD1A491B4A96
:104180009800815001331F2BF8D9EAE70023FAE7A2
:104190001948FFF771FC05001848FFF76DFC02385D
:1041A00003789B007F2B19DD10488022290000F046
:1041B0007BFC022CD7D1124B1A88B5231B029A42E2
:1041C00009D1104B1A88104B9A4204D10F4B1A8810
:1041D0000F4B9A42C7D00020FEF76AFB0D4B0E4AE8
:1041E0000E483221FEF7CAFA21420010A41A00201C
:1041F0004C330000A41B0020534400005346000031
:1042000054380000D8380000494600009C380000AF
:1042100059460000B8A9001054AA00100CAA0010BA
:1042200007B56046002800D100BE01880A0A0230A6
:10423000DF2AFAD1C9B2820804D302884088000478
:10424000104300E00068024A5050039007BD000090
:10425000A41A00200FB403BC0CBCF0B50124E40781
:10426000634000E0F0B50C0DCF0F661E3605891BCC
:10427000640503D3C943404200D30131640D03D028
:10428000661CF60A07D0E41B00207F00791C890712
:104290008912803C24031D0DDF0F6E1E36059B1B0B
:1042A0006D0503D3DB43524200D301336D0D03D0C0
:1042B0006E1CF60A07D0ED1B00227F007B1C9B07BB
:1042C0009B12803D2D032F1B661B58D4A446202E25
:1042D00046DA20371400BC401D00BD40F240334197
:1042E0002A4380185941CB0F05D0C943C04300224F
:1042F00064425041514162464D0D28D10D0D07D108
:1043000000281FD0241940414941013A0D0DF9D030
:10431000640006D3013000D30131002C01D14008E4
:104320004000013A0BD4941CE40A04D11205114454
:10433000DB071944F0BDD907204B194300E0D9072A
:104340000020F0BD0029DDD1002CDBD1F0BD013211
:10435000C6074008CD0728434908002EE1D0D9E719
:104360003C2E29DA203E40371400BC4000D0012406
:10437000F24014431A00BB401C43D317ACE7AC46D1
:10438000202F08DA20360400B4400D00B540F84074
:1043900039412843A5E73C2F0CDA203F4036040082
:1043A000B44000D00124F84004430800B1400C435D
:1043B000C117EAE710001900002494E70000F07F1D
:1043C000F0B50C0D661E3605891BE60A6405640D02
:1043D00002D0651CED0A04D0002001210905803CB3
:1043E0002403A4461C0D671E3F05DB1BE70A64057A
:1043F000640D02D0651CED0A04D0002201231B05C8
:10440000803C24037740644497B484B296B27443EA
:10441000070C7E43150C6F4380B26843361802D3F5
:10442000012000043F183004350C00197D418446FA
:1044300088B29AB250430C0C62431F0C7C438EB27C
:104440007E43921902D301263604A4191604170CD0
:104450003618674101BC81B29AB25143040C6243E1
:104460001B0C5C4380B25843121802D30120000495
:1044700024181004130C401863412D185E410020CD
:10448000474106BC88B293B258430C0C6343120CEC
:10449000544389B251435B1802D3012109046418C3
:1044A00019041A0C091862416D1856410020474141
:1044B00018BCF902720D1143F0026A0D1043ED02AF
:1044C0000A0D03D16D1940414941013B124E9B1B1E
:1044D0007600B3420ED26D0007D301300026714141
:1044E0006646354301D1400840001B05C918E40762
:1044F0002144F0BD0BDA013306D1013004D1013182
:104500004F0D01D04908F2E7E1070020F0BD013668
:1045100031050020EBE70000FF030000F0B51C0DA3
:10452000671E3F05DB1BE70A6405640D02D0661CAD
:10453000F60A04D0002201231B05803C2403D02569
:104540002D060026F6432E661E096E66CE0FF6195E
:10455000B44649004F0D02D07E1CF60A03D000205D
:104560000021403F3F033E1BB600B444013F7F059E
:10457000C91B49082E6F013676089C02950D25430C
:104580007543ED137543AD1301356D10F603761BBE
:104590000CB4CC02450D2C43A2B2B3B25A43270C43
:1045A0007B43350C6F43A4B26C431B1902D3012427
:1045B00024043F191C041D0CA4187D4124196D41CD
:1045C000009A91B2ACB26143170C7C432B0C5F4351
:1045D00092B25A43A41802D301221204BF18220433
:1045E000230C52187B41019C6C431B19520ED901BC
:1045F0000A434401A01A81B2B2B2514303145A4390
:10460000360C734387B27743D617D21900277E4101
:1046100036049B191704160C7F185E417316ED18AB
:10462000F301002680337541A90F06D16400690AA1
:10463000E8055B0A184309D22FE004229444803332
:104640007541A90AA8059B0A184326D34041494150
:104650002404009A019B0D005543641B4343E41A54
:1046600095B286B27543170C7E43030C5F4392B23A
:104670005A43B61802D301221204BF183204330C75
:1046800052197B4152429C41002C02D4002201303D
:1046900051414008CA071043490802B06246D70793
:1046A0009210084BD218084B9A4203D2120589186F
:1046B000C919F0BD0020002A01DC3900F0BD01332A
:1046C0001905F5E7FD030000FE070000002200B514
:1046D000203200F004F8080000BD000000220B1595
:1046E0000AD410B5944600F031F81414013400DAFD
:1046F0000021CB17144C2047002000217047624452
:10470000343A0CD40C2A07DA04009140904052420B
:104710002032D440214310BDD843D94310BD2032AC
:1047200007D40C469440524220321141D0402043DD
:1047300010BD0800C917203203D452422032104164
:1047400010BD1800190010BDFF4600100A0DCC0F57
:10475000531E1B05C91A520503D3C943404200D357
:104760000131520D03D0531CDB0A07D0121B00206D
:104770006400611C89078912803A1203014BD21A26
:1047800070470000FF03000051434343C9188C46A3
:10479000110C83B24B4310B4040C614392B280B24B
:1047A000504362431C041B0C001910BC59411304F4
:1047B000120CC0185141614470470000484041400C
:1047C000484000239C46114B5B68184700239C46D9
:1047D0000E4B1B6818470E4A936F9B0804D20023A8
:1047E0009C460A4BDB681847F0B5146E556E576F40
:1047F000166FFFF7F4FF064A14665566576716678B
:10480000F0BD00239C46014B9B681847A81B002065
:10481000000000D007B548404140484001E0C04694
:1048200007B54200120E03D0FF2A03D1420218D866
:10483000C00DC0054A00120E03D0FF2A03D14A0260
:104840000FD8C90DC9050122414005D4414001D509
:10485000814207BD884207BD0143491801D0C043CA
:10486000001807BD00B5FFF7D5FF804100BD00006F
:10487000C10FC90700D54042002817D0F44603B441
:104880000B4B1B68984706BC81409E3840428031E4
:1048900007D20B0607D04900490AC0051043084358
:1048A00060470130F8E7490A8902F5E770470000E0
:1048B000A41B0020054A1047C2179142FAD0044BAE
:1048C000DB6DFC4618475CDF2B4A00107148001076
:1048D000A81B0020034BDB6FFC4618477CDF5D4ABA
:1048E00000100000A81B002070B513231E782A4872
:1048F000FFF7C2F80500012E11D0012E09DDAB1E15
:104900001B789B007F2B40DD24488022290000F08B
:10491000CBF82348FFF7A8F8224B186070BD1F485A
:104920005422290000F0C0F81F4B1A881F4B9A42EE
:104930001CD1A7239B011A881D4B9A4216D11D4BEF
:104940001A881D4B9A4211D11C4B1A8894239B0143
:104950009A420BD11A4B1A881A4B9A4206D11A4B1B
:104960001A681A4B9A4201D1152307E01848FDF73F
:104970009FFF184C094A99008C5001331F2BF8D91E
:10498000144B064A1362D361B7E7134B134A14481A
:104990004221FDF7F3FEC04653460000A81B00204D
:1049A0004C330000A41B0020EE290000C40F0000BF
:1049B000C20D0000962B0000C0B50000182B0000AF
:1049C000CC2A000010B50000FC2C000051ED8764DB
:1049D000E8A60010E549001068AA0010E4AA00103B
:1049E0009CAA001007B56046002800D100BE0188CF
:1049F0000A0A0230DF2AFAD1C9B2820804D3028837
:104A000040880004104300E00068024A50500390C0
:104A100007BD0000A81B0020002230B5002906D5E4
:104A2000CD0705434808013A10E0002230B50500E3
:104A30000D430FD0CD170C16AC4205D1C901440E61
:104A40002143C0010732F6E70500080052423D321B
:104A50000149884730BD0000EF290000C30FDB0784
:104A600041000A0E07D0FF2A08D00909054A891813
:104A70001943400770471900002070470249C918C0
:104A8000FAE70000000000380000F07F0148042130
:104A9000014B1847300C0020893A0010014B1B686D
:104AA00018470000300C0020014B5B6818470000DD
:104AB000300C002010B50300080011001B68984757
:104AC00010BD0000F8B507000D001600437D002B57
:104AD00002D0002400200CE0036811002800984751
:104AE0002DE03B7D10E03B68154802219847601C93
:104AF0000134B44214DA002CF3DD2B19013B1B788E
:104B00000D3B5A425341DBB22A5D0A2AF0D1002BF9
:104B1000EED1A042E7DA3B68211A28189847E2E76D
:104B2000B04203DA3B68311A28189847002E06DD98
:104B3000AD19013D2B780D3B5A4253413B75F8BDF1
:104B400074AB001070B505000368002B16D00C4B39
:104B50001C6805E0290004C92000FFF7B3FF2469A1
:104B6000002C09D02368002BF9D0064B1B68002BC2
:104B7000F0D0A342F3D1EDE700232B6070BDC04617
:104B8000BC130020C413002070B505000C000B6896
:104B9000802B05D023685A1C2260E418257170BD53
:104BA0000800FFF7CFFFF5E710B5FDF7C1F80200E9
:104BB0000B1E0BDB0D48002112184B41002B0BDBA9
:104BC000002B0DDB0A4804F0B3FF10BD094B0A4A65
:104BD0000A483F21FDF7D2FD01225242084BEFE780
:104BE000044B054A05483F21FDF7C8FD40420F0030
:104BF000980C0020989B00105CAB0010B49B001038
:104C0000FFFFFF7F10B5024804F052FF10BDC04601
:104C1000980C0020F0B5CE46474680B583B006001C
:104C20000D0090461C00FFF7BFFF81466B1C05D0AE
:104C3000002C08D0194F1A4B1C6807E0300004F014
:104C4000FFFE0500F4E7174FF5E72469002C17D0A5
:104C50002368002BF9D0144B1B68002B01D0A34212
:104C6000F3D12A0031002000B8474346002BECD096
:104C70006B46D91D0A230B7001222000B847E4E7D8
:104C80004B46002B07D16B1E9D41E8B203B0C0BC60
:104C9000B946B046F0BDFFF7B5FFF4E7B54A0010DE
:104CA000BC130020C54A0010C4130020094A01E0CB
:104CB00010331A001368002B08D08342F8D1002962
:104CC00007D1036913600023036102E0002900D0CB
:104CD00010607047BC13002010B5064B1C6801E043
:104CE00098472469002C03D06368002BF8D1F8E7BB
:104CF00010BDC046BC13002070B5050004F0A0FE36
:104D000004000023012201002800FFF783FFFFF7C2
:104D1000E3FF200070BD000070B5A2B004000E00DB
:104D2000FFF742FF0500002301930A4833002200E9
:104D300001A9FEF781FE040001A8FFF703FFFFF7BA
:104D4000CBFF002D02D1200022B070BDFFF75AFF2B
:104D5000F9E7C046894B00100FB400B583B004A931
:104D600001C90191FFF7D8FF03B008BC04B0184790
:104D700010B500F037F910BD70470000014B00225C
:104D80001A707047091E02204B79FF2B0CD18B79CA
:104D9000002B0BD1CB79012B0AD1082A0AD98A78AA
:104DA000054B1A70092000E0002070470020FCE746
:104DB0000020FAE70020F8E7091E022001207047D2
:104DC00070B504000D000348FEF74EFE03002900F5
:104DD000200098475542000010B5012926D11179CD
:104DE00053791B020B43124909788B4201D00020F2
:104DF0001DE05378012B03D0022B10D0002016E0C9
:104E00009178D3781B021943DB0506D54B0A0120A4
:104E100098407F231940FFF7D3FF0020F9E7642271
:104E200000210020FDF76CFC012000E0012010BDF6
:104E3000091E0220012303700048704778AB001060
:104E400010B50A784B781B0213438A7812041A4370
:104E5000CB781B0613439622D200934200D010BD9C
:104E600000210800FFF7ACFF024B1860024B1960ED
:104E70007047C046201300202413002010B5024BB9
:104E80001878FBF7EFFE10BD0A1E022070B5134B19
:104E90001B68002B1DD0114B1968EFF3108272B6FE
:104EA0000B68002BFCD0BFF35F8F0C4842600C4BAB
:104EB000002119700368BFF35F8F196082F31088B7
:104EC00000240025074B1878FBF7CCFE20002900B2
:104ED00070BDFA24A4000025F4E7C046E8170020BE
:104EE0000B1E02200A1E022010B584B02D4800219E
:104EF00004F0FEFD00283AD12B4B1B68002B3ED05E
:104F0000294B1968EFF3108272B60B68002BFCD0A6
:104F1000BFF35F8F24494A6024480378012463402B
:104F2000DBB2012404700968BFF35F8F00200860C2
:104F300082F31088002B22D0FCF70AFD0400FCF756
:104F4000F7FE02000B1E1CDBFA2080000021121865
:104F50004B41002B1BDB002B1DDB012102910021AB
:104F60000191134900912000FCF708FD07E00120A2
:104F70000021404201F0F2F80A4804F099FD04B023
:104F800010BD0C4B0C4A0D483F21FDF7F7FB0122E9
:104F900052420B4BDFE7074B074A08483F21FDF71A
:104FA000EDFBC046AC1C0020E81700200B1E0220C1
:104FB0008D4E0010989B001008AC0010B49B0010A0
:104FC000FFFFFF7F10B5054B1868002804D0044B85
:104FD0001968002200F0E6FD10BDC0462013002035
:104FE0002413002010B584B0D0231B061C68FCF7E6
:104FF000AFFCFCF7F3FDA0422BD1334B1B7801F043
:1050000097FD3248FCF71EF90120FCF7FDF8C0B20D
:105010002F4C20702F49FBF747FE20780121FBF72A
:1050200019FE0520FBF72EFE041E18D02A49002287
:105030000520FBF763FEFBF779FD0100274B180005
:10504000FCF71EF926480121FFF730FE200004B0CE
:1050500010BD244B244A2548B221FDF78FFBFCF7F5
:1050600077FC0400FCF764FE02000B1E1BDBFA2039
:105070008000002112184B41002B1ADB002B1CDB97
:105080000121029100210191194900912000FCF7B2
:1050900075FCC443E40F114808220021FFF7FEFC11
:1050A000002CD3D0CEE7134B134A14483F21FDF711
:1050B00065FB01225242124BE0E70E4B0E4A0F48AD
:1050C0003F21FDF75BFBC04608BF0010AC1C002071
:1050D0000A1E0220E94E00107D4E0010E817002045
:1050E000400C0020F49E0010F8AB001090AB0010B4
:1050F0008D4E0010989B001008AC0010B49B00105F
:10510000FFFFFF7F10B5002001F032FA10BD000054
:1051100070B505000C00FFF7F5FF002845D0002012
:1051200001F048FA002843D0FCF702FE02000B1EF3
:1051300021DB2248002112184B41002B21DB002BE0
:1051400023DB1F4804F0F4FC002834D0FFF7DAFF1B
:10515000002804D0002001F02DFA00281BD10120E6
:105160000021404200F0FAFF03246442144804F096
:105170009FFC200070BD134B134A14483F21FDF7DC
:10518000FDFA01225242124BD9E70E4B0E4A0F484C
:105190003F21FDF7F3FA22002900002001F016FA62
:1051A000041EE3D103246442E0E703246442E0E701
:1051B00003246442DDE703246442DAE740420F003F
:1051C000AC1C0020989B001008AC0010B49B001091
:1051D000FFFFFF7FF0B5C64600B580460C00FCF728
:1051E000A7FD02000B1E0FDB3748002112184B41B0
:1051F000002B0FDB002B11DB344804F099FC002856
:1052000012D180BCB846F0BD314B324A32483F2102
:10521000FDF7B4FA01225242304BEBE72C4B2D4AFA
:105220002D483F21FDF7AAFAFFF76CFF002849D16E
:105230002B4B0020002118605960244804F038FCF2
:10524000DFE701200021404200F088FF002001F04C
:10525000D1F9FFF757FF0028EFD0002001F042FA04
:10526000002820D0A542E8DA661B002001F03AFAB7
:105270000200864200DC3200002AE2D0434659197F
:10528000002001F013FA060001200021404200F046
:1052900065FF002001F0AEF9AD19FCF749FD104B98
:1052A00018605960DEE7FCF743FD0D4B1E685F6830
:1052B0000C4A002392197B419942BED8D2D1904228
:1052C000D0D9BAE70025CDE740420F00AC1C002042
:1052D000989B001008AC0010B49B0010FFFFFF7FEC
:1052E000C00D002020A1070000487047A0AC0010AE
:1052F000004870474CAC001010B50400154B1B78EB
:10530000002B0ED0002C11D1134B144A5A800123CC
:1053100001335B001BB2C022920013430E4803808E
:1053200010BD0C48112100F025F8EBE7052C0ED834
:105330000B4BA400E4580023122BE9D8E15C0029B0
:10534000E6D00133044A58001152DBB2F4E70020E2
:10535000E6E7C046C41C02209413002009040000A4
:10536000B4AC001010B5024800F032F810BDC046D1
:105370009C1A002010B5002901D000230AE0104B30
:10538000104A11481F31FDF7F9F900220DE03732BC
:10539000C25401334A1E9A420ED90F2B0CD85A0818
:1053A0000A4CA45CDA07F0D4042214410F222240F4
:1053B000092AECDC3032EBE7C0180023037010BD83
:1053C000CCAC00101CAD0010D4AC00109C1A002016
:1053D00070B588B0040004AD0026049609220021AF
:1053E00005A8FFF75BFB00960922002101A8FFF743
:1053F00055FB4B232B700D226946280004F050FB0F
:10540000002304E05A1D69468A5CE2540133072BED
:10541000F8DD08B070BD000002007F201040D20906
:10542000400080184001014BC0187047C81300208D
:1054300010B5038B3F333F229343022915D0124C02
:105440002268C260D31823609C0610D10F4C6240C2
:10545000634080246401A3420FD88906114380234E
:105460001B060B434268136010BD5B00E7E7084B67
:10547000084A09485421FDF781F9084B054A0648B6
:105480005621FDF77BF9C046CC17002000001050D4
:10549000A8AE0010C0AF0010D8AE00102CAF0010A6
:1054A000F8B505000E001400FFF7B6FF7F232B4070
:1054B000EF0985707A427A4142700022C2700683F9
:1054C000C476012F0DD0DA0012498C466244826006
:1054D000826800211160002B09D143600E4BC3602C
:1054E000F8BDDA000D498C4662448260F0E7012F76
:1054F00009D0013BDB000A4A944663444360210023
:10550000FFF796FFECE7013BDB00064A9446634455
:105510004360F4E7840010500001105080001050E8
:105520000C0010500800105070B50C001500FFF76B
:1055300073FF2A00210000F00DF970BD10B500289E
:1055400004D101210520FBF785FB10BD034B044A64
:10555000D52104484900FDF711F9C04674AF001089
:10556000B0AF0010D8AE001010B5002805D1002251
:1055700000218020FFF7D8FF10BD034B034ADB2139
:1055800003484900FDF7FAF874AF0010A0AF00100F
:10559000D8AE0010024B80225202DA647047C04637
:1055A0000020115070B5041E26D100F0ADF8164D44
:1055B0000C23AB671549FF220520FBF79FFB14481E
:1055C00040220021FFF76AFA002240210020FFF765
:1055D00067FF002240218020FFF762FF04F0A0FA5D
:1055E00001232B6480239B05EB649023094AEA5036
:1055F0002000FFF7CFFF70BD074B084A86210848FF
:10560000FF31FDF7BBF8C0460000115075040020C3
:10561000C813002010D0010074AF0010D4AF0010E8
:10562000D8AE00100B785B0602D14B78052B00D06A
:1056300070478A78014B1A60FAE7C04600001150A3
:1056400010B50A0000280DD18878097953791B021A
:105650000B435B05590DD2789207920FFFF720FF9D
:10566000012010BD034B044AFC210448FF31FDF723
:1056700085F8C04674AF001090AF0010D8AE00108F
:1056800010B504F04DFA10BD10B50400080011006B
:105690001A00002C03D1FFF747FF012010BD034B78
:1056A000034A04480449FDF769F8C04674AF001086
:1056B00080AF0010D8AE00100A02000010B508003C
:1056C0004B0605D1CB09012B0AD00222054B9A6665
:1056D000FFF7A2FE80221201002104F041FA10BD62
:1056E0000122F3E70020115010B508004B0600D14D
:1056F00010BDFFF791FE0023C3700022014904F0A2
:105700002FFAF5E7FFF7FFFF10B580235B040C4A83
:1057100013600C4A13600C4B9A6880235B0493431C
:10572000F9D10A4C9C2200212000FFF7B7F9802212
:10573000520100210648FFF7B1F90923636710BD44
:1057400000E0004000F0004000C0004000001150A8
:105750000000105070B504000D001600837E002B71
:1057600017D1A6820023E3820133A37625612000AE
:1057700004F0FEF9002804D0094A90238021890210
:10578000D150200004F0A4F9002805D0012323778C
:1057900070BD04F0DDF9E4E7200004F0D1F9F7E78B
:1057A0000020115070B5050000240CE062001219B1
:1057B000D200184B1B689B18002B2AD05B6828006E
:1057C00098470134E4B2144B1B78A34210D3134A18
:1057D000002A0BD0A342E9D8E31ADBB2002B18D180
:1057E0000F4A5900C918C9005318E5E72300F5E727
:1057F0000C4C532200212000FFF750F9E01C10222E
:10580000FF21FFF74BF9200013302022FF21FFF783
:1058100045F970BDCC0D0020041E0220354E00104D
:1058200064B10010F410002010B5FFF7BBFF00F0CA
:10583000F5FD10BD70B505000C001600C86800F03D
:10584000F7FDE368320001212800984770BD000091
:10585000F0B5DE4657464E46C0B582B000900139DD
:10586000C8B2FFF745FD041E00D18CE043789A468C
:10587000022B00D089E0C579681101224B4B104002
:10588000000119781026B14301431970AD112A4067
:105890005201C9B2202081430A431A7027000937F8
:1058A000A278E3781B021343E418A74264D27B7802
:1058B0000B2B09D001239B467B78042B6CD1E31B77
:1058C0009BB29946002525E0FB789B463B78FF1864
:1058D000F2E76B005B19DB00354A1668F6182BE01F
:1058E0002B0022E0B268334B9A4234D1D34632E0E7
:1058F0002E4813302B00019E3200390001F0A6F92A
:10590000B44667442C4B1B78AB42CED200203DE01E
:105910000135EDB2284B1B78AB42F3D3274A002A5E
:10592000DED0AB42D5D8EB1ADBB2002B36D1244EF9
:105930005A00D318DB00F618002E31D0B3684A465F
:1059400039000098984701900828E1D98145DFD3B4
:105950005B46012BC6D000229345C9D9BB789B1862
:10596000DBB21249C918C978FF291BD10F49CB18DE
:10597000DD700132D2B2EFE7124B002B14D000E001
:1059800000BF012002E0002000E0002002B0E0BCE7
:10599000BB46B246A946F0BD0020F7E70020F5E778
:1059A0000020F3E70020F1E70120EFE7F4100020EA
:1059B000CC0D002001680010041E0220354E00109E
:1059C00064B100100000000070B505000C00CB7839
:1059D00088780F2B50D89A002E498A589746FFF79F
:1059E00083FC020012232100280000F0DBFC44E0CD
:1059F000294B002B42D000E000BF021E40D081782E
:105A0000C3781B020B432100280000F0CBFC34E0DC
:105A1000022B09D0214B002B34D000E000BF020044
:105A2000002A05D1002028E0FFF762FC0200F7E71A
:105A30009178D3781B020B432100280000F0B2FCC0
:105A40001BE02379617909021943FFF755FC021E17
:105A50001AD003782100280000F0A4FC0DE0104BC0
:105A6000002B13D000E000BF021E11D003782100EC
:105A7000280000F097FC00E0002070BD0020FCE74B
:105A80000020FAE70020F8E70020F6E70020F4E71E
:105A90000020F2E7D8B00010000000000000000075
:105AA00000000000024B5878431E9841C0B2704776
:105AB000F4100020024B18784007C00F7047C04612
:105AC000F4100020034B1878FF38431E9841C0B2F1
:105AD0007047C0467C0C002070B50400FFF7F2FF51
