:020000041000EA
:1000000000B5324B212058609868022188439860DF
:10001000D860186158612E4B002199600221596106
:100020000121F02299502B49196001219960352056
:1000300000F044F80222904214D00621196600F024
:1000400034F8196E01211966002018661A6600F04E
:100050002CF8196E196E196E052000F02FF8012189
:100060000842F9D1002199601B49196000215960AB
:100070001A491B48016001219960EB211966A021F2
:10008000196600F012F800219960164914480160C1
:100090000121996001BC002800D000471248134993
:1000A000086003C880F30888084703B5996A0420EC
:1000B0000142FBD001200142F8D103BD02B5186610
:1000C0001866FFF7F2FF186E186E02BD00000240BE
:1000D000000000180000070000035F00212200005C
:1000E000F4000018222000A00001001008ED00E03C
:1000F00000000000000000000000000074B24E7A12
:1001000000200420F7010010C3010010C5010010F9
:10011000C1010010C1010010C1010010C101001097
:10012000C1010010C1010010C1010010C701001081
:10013000C1010010C1010010C9010010CB01001065
:10014000CD010010CD010010CD010010CD01001037
:10015000CD010010CD010010CD010010CD01001027
:10016000CD010010CD010010CD010010CD01001017
:10017000CD010010CD010010CD010010CD01001007
:10018000CD010010CD010010CD010010CD010010F7
:10019000CD010010CD010010CD010010CD010010E7
:1001A000CD010010CD010010CD010010CD010010D7
:1001B000CD010010CD010010CD010010CD010010C7
:1001C00000BE00BE00BE00BE00BE00BEEFF3058054
:1001D000103800BEF2EB8871DC690010F86900107D
:1001E0003402001090A31AE700201F49086006C8D7
:1001F00081F3088810471D48006800282FD10DA4FE
:100200000ECC002902D000F012F8F9E71849194A7B
:10021000002000E001C19142FCD1174988471749ED
:1002200088471749884700BEFDE701C901C29A42C5
:10023000FBD37047F8690010C0000020FC020020CA
:10024000346C00100000042000000420346C001006
:10025000001004200010042000000000704709482E
:1002600002F000FF0047000008ED00E0000000D0B1
:1002700000030020C8090220C11D0010090300105E
:100280007D1D00105756000006005250ABB360535E
:100290002861001006005250861C030238610010CD
:1002A000060052505422A29D446100100500525095
:1002B000DE65F468346C0010F8B5C046064807499E
:1002C000091A8B10C90FC91810B5491003D0044B77
:1002D000002B00D0984710BDFC020020FC0200203B
:1002E00000000000054B10B5002B03D00449054861
:1002F00000E000BFFFF7E2FF10BDC04600000000B5
:10030000800400203853001070B5F0256D032800DC
:1003100000F0ABF8D02424066562E825ED01280042
:1003200000F0A3F8A5623C2000F09FF83C23636234
:100330001C2000F08FF880235B0563621B2000F017
:1003400089F880231B05A362002465E0D0221206F1
:100350008021C902916118002100012816D0D02304
:100360001B065B689B0B012214001C401A42F3D051
:100370000029F1D143424341DBB20028E6D1D0222B
:1003800012068021C90251611800E5E7D0231B063F
:100390005B68DB0427D5D0231B06802292025A61BA
:1003A000D0231B065B689B0423D5D0231B06802229
:1003B00052035A61D0231B065B685B051FD5D0230F
:1003C0001B06802212035A61D0231B063C225A616D
:1003D0005B689B0B3B3A14001C401A421FD000295B
:1003E00013D02100B9E7D0231B06802292029A6124
:1003F000D6E7D0231B06802252039A61DAE7D02386
:100400001B06802212039A61DEE7D02212061369CE
:10041000F02149030B40D361210000209FE7210018
:100420009BE7000010B58300084A944663441A68AD
:1004300040246240803414408022520113431C60E7
:10044000C000034B9C466044416010BD04C00140A5
:100450000040014010B501238340D0221206936270
:1004600093610521FFF7DEFF10BD70B50500002484
:1004700001E06D0801341D2C05D8EB07F9D52000EB
:10048000FFF7E8FFF5E770BD034B1B68022018403B
:10049000431E9841C0B2704700C00640EFF3108081
:1004A00072B6034B1B68002BFBD0BFF35F8F704706
:1004B0002C0100D0BFF35F8F024B00221A6080F343
:1004C000108870472C0100D0F8B506000C0015000C
:1004D000FFF7E4FFE308F718F15C0722224001234D
:1004E00093400B4205D1DBB20B433B70FFF7E2FFB9
:1004F000F8BD2100280001F0DFFC0000002307E028
:10050000054A9A189200BFF35F8F002111600133F2
:100510001F2BF5D97047C04640000034054A1078BB
:10052000431CDBB21370172B02D9130010221A7070
:100530007047C04630020020074B9B681030800097
:100540001950BFF35F8FBFF35F8F044B0021196019
:1005500082F310887047C04600ED00E0240100D00F
:1005600010B5091A0B1F0A4A94466144094A914280
:1005700008D8DA0706D45B105B055B0D0648184304
:1005800080B210BD054B064A0648A32101F0FAFBD4
:10059000FC070000FE0F000000E0FFFF38530010D2
:1005A0008C5500106853001010B5091A04394A0818
:1005B000090B08D14905490D064B0B430380064B37
:1005C0001343438010BD054B054A0648AB2101F09B
:1005D000D9FBC04600F0FFFF00F8FFFFA853001052
:1005E000605500106853001001238340034A1068CF
:1005F0001840431E9841C0B27047C04600E100E079
:10060000002904D0034B1860034B18607047034B5C
:100610001860FBE780E200E000E100E080E100E03C
:1006200010B5012383401800FFF7EAFF10BD00005A
:10063000024B9B6810308000C058704700ED00E00E
:1006400070B504000D00EFF3108672B60C4B1B68FA
:10065000002BFBD0BFF35F8F2000FFF7E9FF094BB2
:10066000984201D0A84205D1320029002000FFF7AE
:1006700063FF70BD044B054A0548862101F082FBEB
:10068000240100D0CD010010B8530010A85500106F
:1006900068530010F0B5CE46474680B583B00600DB
:1006A0000D00EFF3108872B6554B1B68002BFBD082
:1006B000BFF35F8F534B9A6834001034A300D758B0
:1006C000514B9F4207D0AF4200D196E001974F4B6C
:1006D000FB1A2F2B09D9424639003000FFF72CFFB7
:1006E00003B0C0BCB946B046F0BD3000FFF77CFF98
:1006F000814600213000FFF793FFBFF35F8FEFF3D8
:100700000581002901D08C4211D10123019C9C4319
:100710000020A368AB4212D00622A256002A0DDBAD
:1007200053009B189B00394A2000D418F1E7384B3E
:10073000384A36213848FF3101F024FB2000AB4213
:1007400054D106256557002D36DB304B6A0052190F
:1007500092009B189A68A260DA79E2719B795BB289
:10076000A371002B0FDA2D48A080284B6A00521984
:1007700092009B182A4A11789971157049463000E9
:10078000FFF74EFFA7E7201D6B005B199B001F4A78
:100790009B18191D9B88DA0A1C2A07D15B055B157B
:1007A00002335B00C918FFF7DBFEDDE71D4B1E4A75
:1007B0001948B12101F0E6FA002912D100280ED023
:1007C000FF238371194B838015490B78A3710F4A5E
:1007D000174BA41A644163431B0D0B70CEE70A4FFD
:1007E000F2E71449201DFFF7DFFEC7E7124B094A65
:1007F0006A210948FF3101F0C5FA034F6BE7C04693
:10080000240100D000ED00E0CD01001034020020F2
:10081000CC540010785500106853001001BD000042
:10082000C5090220B45400109855001001BDFFFF07
:10083000AAAA00006E0200200055001070B5012227
:1008400002432E4BD31A2F2B28D8EFF30583002B0E
:100850002BD0EFF3108C72B6294909680029FBD020
:10086000BFF35F8F254C274905002D1B6D41694360
:10087000090D4CB2244989689B00C95891421BD08C
:100880000021032932D81D4B4A00521892009B18B0
:100890009B795BB2A3421FD00131F2E71B4B1C4A8C
:1008A000C7211C48490001F06DFA1B4B184A9221E0
:1008B0001848FF3101F066FA134A92681749D1507F
:1008C000174B1A7882711C70BFF35F8F0C4B00229C
:1008D0001A608CF3108870BD084B4A005518AD00A3
:1008E0005D19FF26AE710F4AAA80E9E70E4B084A50
:1008F000D1210848490001F045FAC04634020020E1
:10090000240100D0AAAA000000ED00E00855001064
:10091000445500106853001030550010CD010010F0
:10092000C509022001BDFFFF3C5500100022044B09
:1009300002E0044902C30132072AFAD97047C046CF
:1009400000E400E080808080024B9C466144890086
:10095000016070474000003410B50400FFF7DEFD71
:1009600001002000FFF7F0FF01235B426360BFF34B
:100970005F8F10BD10B50400FFF7D0FD010020000F
:10098000FFF7E2FF01235B42636000232372BFF3A2
:100990005F8F10BD70B505000C00080000F004FE6C
:1009A0000949200000F044FDFFF7B8FD074B9C46C5
:1009B0006044800068602C75D0231B061B786B7523
:1009C000034BA400E55070BDC10C00104000003482
:1009D0009804002010B5084B1A68EFF3108172B626
:1009E0001368002BFCD0BFF35F8F034803F028FD92
:1009F0000020002110BDC0464009002010B500298C
:100A000020D003681B7B99421CD88368154CA446F0
:100A1000614409015B181C685968002A18D00368F2
:100A20001B7B9A4214D883680E48844662441201A4
:100A30009B181A685B6801208B4201D80ED00020F9
:100A4000C0B210BD084B094A09483C2101F09AF98F
:100A5000054B064A06483C2101F094F9A242EFD822
:100A6000EDE7C046FFFFFF0F245700103859001074
:100A7000EC56001010B500291DD0037B99421AD8FE
:100A800004684B005B18033BE418002919D0002AC6
:100A90001DD0914221D0002A25D0037B9A4222D832
:100AA000006853009B18033BC318997021780029F4
:100AB0001FD1227010BD104B104A1148682101F05F
:100AC00061F9104B104A0E486F3101F05BF90F4B82
:100AD0000D4A0B48702101F055F90D4B0A4A0848A0
:100AE000712101F04FF9044B044A0548682101F0D7
:100AF00049F959702270DDE748570010A4590010D9
:100B000064570010B057001080590010BC570010F7
:100B1000C857001070B506000D001400002914D04D
:100B2000002A14D0436880689847002806D0220025
:100B300029003000FFF79EFF280007E02A0021006F
:100B40003000FFF797FF200000E0100070BD0800A4
:100B5000FCE70000F0B583B00500009201930AABFA
:100B60001C780BAB1F78002C26D003685A7B94426C
:100B700007D10123002B19D1002C3AD1200003B05A
:100B8000F0BD002C0CD01A7B944209D81A6863007F
:100B90001B19033BD3189B78002BEBD00123E9E70B
:100BA0003C4B3D4A3D48682101F0ECF83C4B3D4A46
:100BB0003D48672101F0E6F803689C7B002CDBD000
:100BC00011D01A7B94420ED81A68610009190339B2
:100BD000521851789973002900D1D973002393706A
:100BE00053701370C8E72B4B2B4A2C48682101F037
:100BF000C9F8002C37D02B681B7B9C4233D8AB68DC
:100C00002A4AA21812019B18009A1A60019A5A6087
:100C1000089A9A60099ADA602E68002C29D02ED0A2
:100C2000337B9C422BD8336862001219033A9B181D
:100C300000229A705A701A70717B22003000FFF700
:100C400069FF7073844299D1287D009A019B00F05E
:100C500037FC061E01D0002F17D00C9B002B00D1B3
:100C60008CE71E708AE7124B124A0F483C2101F0B4
:100C700089F8114B114A0948A52101F083F8054B69
:100C8000054A0648682101F07DF82868210000F037
:100C900047FEE2E748570010A459001064570010BF
:100CA000E0570010B0590010EC560010FFFFFF0F86
:100CB0002457001038590010E856001094590010BD
:100CC000F0B5DE4657464E464546E0B58BB0099036
:100CD00000230893B54B8200D55854E0B44BB54A75
:100CE000B5483F2101F04EF8B44BB54AB5483C2118
:100CF00001F048F8002F01D1002E6BD1002100F047
:100D000005FEA0421CD143461A685B680692079311
:100D100043469B689A464346DB689B465346002BF6
:100D200014D0002C18D02B681B7B9C4214D8EA6886
:100D3000631ED35C08931B0218432861002015E052
:100D4000A14BA24A9F488E2101F01CF8A04B9F4A5C
:100D50009C48922101F016F8984B9E4A99484121EF
:100D600001F010F800239B469A4600206B68BFF301
:100D70005F8F00221A6089F310885346002B33D10D
:100D8000002800D10BE100F047FB02000B1EA5DBA1
:100D900000200021069007916868EFF3108972B671
:100DA00001680029FCD0BFF35F8F2868447B002CCA
:100DB000D8D099D0017B8C4296D8AE68864961180C
:100DC0000901B046884441460E684F68B61A9F41F3
:100DD000002F8FDD43461A685B68099800F070FBAE
:100DE00000239B469A46C1E7089B1B022343984673
:100DF00059461800D04706000F006A68EFF31089C3
:100E000072B6136859424B41D9B2002BF9D1BFF3E6
:100E10005F8F002F1EDB002F46DD2B69002B47D094
:100E200043456DD100F0F8FA02000B1E6EDB9219FB
:100E30007B41002B70DB002B72DB00210491013120
:100E40000391029459460191514600912800FFF701
:100E500081FE4CE02B69002BDDD0434514D1069A6E
:100E6000079B921BBB41002B14DB002B16DB0021E0
:100E70000491013103910294594601915146009128
:100E80002800FFF767FE32E0544B504A4D48A1213D
:100E900000F078FF01225242514BE6E7444B454AAD
:100EA00045483F2100F06EFF002F01D1002EB4D144
:100EB0002B68002C4FD05A7B944237D10121002956
:100EC00049D1DA7B002A4CD19A7B002A03D1DA7B04
:100ED000002A58D19C73DC73002C5AD02B681B7BE2
:100EE0009C4256D8EA68013C135D01331355002338
:100EF0002B616A68BFF35F8F136089F3108842E744
:100F0000364B324A2F48A42100F03CFF284B294A97
:100F100029483F2100F036FF01225242304B8AE738
:100F2000234B244A24483F2100F02CFF002C0CD0F6
:100F30001A7B944209D8186862001219033A821881
:100F40009278002ABBD00121B9E7264B264A2748D0
:100F5000682100F017FF264B264A2448F62100F0AE
:100F600011FF002A09D0197B8A4206D8186851005F
:100F70008A18033A82185470A6E71A4B1A4A1B487B
:100F8000682100F0FFFE1C4B1A4A1848FB2100F0B4
:100F9000F9FE0A4B0F4A0B48412100F0F3FE0BB05B
:100FA000F0BCBB46B246A946A046F0BD980400205E
:100FB0001856001004590010345600102457001021
:100FC00038590010EC560010085800101C59001039
:100FD000205800105C590010FFFFFF0F2C58001024
:100FE000FFFFFF7F48570010A459001064570010FE
:100FF00068580010705900108C58001010B50C4B38
:101000005B68002B04D00B480A21FFF79DFC10BD44
:10101000074C094A20682300102100F08DFB0320B3
:1010200000F0EEF903212000FFF7B4FCEBE7C04627
:101030007C02002040090020FD09001010B5064B7D
:101040005B68002B01D0044810BD044B044A0548DE
:101050005E2100F097FEC0467C020020A0580010E0
:1010600044590010EC560010F0B5DE4657464E4687
:101070004546E0B58BB0804616001F00149B9A468B
:10108000159B994616AB1B789B461F2302AA9446D4
:10109000634400221A702DE0002809D042461268ED
:1010A000127B904204D84246D168421E8A5C43E0DB
:1010B000414B424A4248412100F064FE07984EE00D
:1010C000361BAF41002F07DB002F13DA3D4B3E4AA2
:1010D0003E483F2100F056FE012676423C4FF3E7A2
:1010E000384B394A39483F2100F04CFE002D51DB86
:1010F00026002F0043465A68EFF3108472B6136837
:1011000059424B41D9B20791002BF8D1BFF35F8F01
:101110001F3302AA9446634404930023039302936B
:101120004B4601935346009332003B004046FFF785
:1011300011FD031EB0D1020041464968BFF35F8F25
:1011400000250D6084F31088002B29D01F2302A9ED
:101150008C4663441B78002BB0D112021043002B45
:1011600020D05B46002B1DD04946D04704000D001F
:1011700003000B431DD00029A2DB00F04DF9020053
:101180000B1EADDBA4185D41002DAFDA01246442D3
:101190000F4DABE70B4B0C4A0C483F2100F0F2FD22
:1011A000012040420BB0F0BCBB46B246A946A04667
:1011B000F0BD0798F6E7C046245700105C590010B0
:1011C000EC56001018560010045900103456001048
:1011D000FFFFFF7FF8B50400002961D04268EFF3FC
:1011E000108572B6136858424341D8B2002BF9D12A
:1011F000BFF35F8FCBB22268567BB3421BD1012075
:10120000002847D0206988422AD0090AC9B2002B99
:101210002DD02068007B834229D8E668581E305CB8
:1012200088422AD000206368BFF35F8F00221A60D3
:1012300085F31088F8BD002B0CD0167BB34209D87B
:1012400017685E00F618033EBE19B678002ED7D098
:101250000120D5E7134B144A1448682100F092FD91
:10126000134B144A2C211448FF3100F08BFD134B13
:10127000134A1148412100F085FD1900100000F0CB
:101280004FFB0028CFD10F4B0A4A99210A48490049
:1012900000F078FD23698B42C5D100232361C2E7AA
:1012A0000020C7E748570010A459001064570010E9
:1012B000C4580010EC580010EC56001024570010D1
:1012C0005C590010E858001070B584B005000C009F
:1012D000EFF30583002B1ED1FFF7B0FE002302932E
:1012E0000193224B00932A002300FFF7BDFE061E48
:1012F00023DD20BFFFF7A2FE3100FFF76BFF1C4B81
:101300005B6A9C422DD81A4A926AAA422CD29C420D
:1013100025D0012026E0164B5B6A994209D8144A71
:10132000926A824207D2994201D001201AE000203D
:1013300018E0002016E0012014E00D4B5B6A9C428F
:1013400009D80B4A926AAA4207D29C4201D00120D6
:1013500008E0002006E0002004E0012002E0002078
:1013600000E0002004B070BD0120FBE7D5090010AB
:101370000040054070B5EFF305801038EFF3108C96
:1013800072B6194B1B68002BFBD0BFF35F8F012295
:101390001300834015494B6315490B6015490978C3
:1013A0000C00C440224213D0104A546A124A8500ED
:1013B000AA58944205D3114AAA580E4C9943217059
:1013C00007E00A4A031D9B0099589950002200E04B
:1013D0000022BFF35F8F044B002119608CF310884B
:1013E000002A00D0904770BD280100D00040054081
:1013F0003C700540C609022044090020000400207A
:1014000010B50100024A034B1800FFF75DF810BD4C
:10141000C8590010C4090220044B5B6A034A906A51
:101420001900536A9942F9D17047C04600400540FF
:1014300070B504000E00EFF3108572B61B4B1B68ED
:10144000002BFBD0BFF35F8F002E1CD02000FFF7D6
:10145000EFF8174B83420BD019002000FFF7F0F88C
:1014600001212000FFF7DCF80123A340114A13609B
:10147000114BA400E650BFF35F8F0C4B00221A60A3
:1014800085F3108870BD0C4BA2000021D1500122C1
:10149000A2400A490B7893430B7005492000FFF7DF
:1014A000F9F800212000FFF7BBF8E4E7280100D09D
:1014B000751300103860054000040020C6090220A2
:1014C000F0B5DE4600B584B00400150001921E00A0
:1014D0000293FFF7A1FF03958E4202D84ED18542B9
:1014E0004CD9EFF3108B72B6274B1B68002BFBD047
:1014F000BFF35F8F254A17780125A540EBB23B4328
:101500001370234B5D63221D92000199D150214A33
:10151000A100029888501B6A2B4212D11C4B1B6CF5
:101520002B4208D00020BFF35F8F174B00221A60B8
:101530008BF3108823E0184B184A1948C52100F096
:1015400021FCFFF769FF8E4214D802D1039B83422E
:1015500010D80E4B1B78BB420ED00D4B1D625D6345
:101560001F222240012393400E4A1360074B1F7035
:101570000120D8E70020D6E70120D4E7012004B0FD
:1015800080BCBB46F0BDC046280100D0C609022081
:101590000040054044090020EC590010545A001046
:1015A000105A001080E200E0EFF3108C72B60B4B83
:1015B0001B68002BFBD0BFF35F8F01238340084AD9
:1015C000136208490A789A430A70BFF35F8F034B8E
:1015D00000221A608CF310887047C046280100D0A2
:1015E00000400540C609022010B500291DD0037B2C
:1015F00099421AD804684B005B18033BE418002991
:1016000019D0002A1DD0914221D0002A25D0037B79
:101610009A4222D8006853009B18033BC318997064
:10162000217800291FD1227010BD104B104A11489B
:10163000682100F0A7FB104B104A0E486F3100F0F4
:10164000A1FB0F4B0D4A0B48702100F09BFB0D4B8B
:101650000A4A0848712100F095FB044B044A0548EA
:10166000682100F08FFB59702270DDE748570010A9
:101670005C5B001064570010B0570010485B00100E
:10168000BC570010C857001070B506000D001400BC
:10169000002914D0002A14D0436880689847002895
:1016A00006D0220029003000FFF79EFF280007E047
:1016B0002A0021003000FFF797FF200000E0100013
:1016C00070BD0800FCE7000010B500234373013330
:1016D0008373037BC3730123027B9A4213D9002BCC
:1016E0000BD0027B934208D801685A00D218033A03
:1016F0008A180133DBB25370EEE70C4B0C4A0D48ED
:10170000682100F03FFB002A09D0924207D8016807
:1017100053009B18033BCB1800225A7010BD034B9B
:10172000034A0448682100F02DFBC04648570010CA
:101730005C5B00106457001010B501734260836059
:10174000FFF7C2FF10BD000070B50400081E00D1F5
:1017500070BD002931D0237B99422ED822684B00DE
:101760005B18033BD3185A78002AF1D02BD0237B87
:101770009A4228D8216853009B18033BCB185D7808
:1017800000215970002824D0237B984221D8216859
:1017900043001B18033BCB180021597001002000A7
:1017A000FFF772FF060029002000FFF7CDFF0200BF
:1017B00031002000FFF768FFCAE7094B094A0A48D1
:1017C000682100F0DFFA064B064A0748682100F05E
:1017D000D9FA034B034A0448682100F0D3FAC04603
:1017E000485700105C5B00106457001070B505008E
:1017F0000C00160000292ED033D0037B994230D83C
:1018000003684900091903395B185A78002A2ED158
:101810009A78002A31D11978FFF796FF0300002E3D
:101820000AD0EA7B002A2ED1AA7B002A03D1EA7BC8
:10183000002A3AD1AC73EC73002B3CD1002C4DD074
:101840002B7B9C424AD82A6863001B19033BD318A0
:1018500000225A7070BD244B244A2548382100F0DC
:1018600091FA244B244A2548682100F08BFA244B36
:101870001E4A1F483A2100F085FA224B1B4A1C4899
:101880003B2100F07FFA002A09D0297B8A4206D842
:101890002E6851008A18033AB2185470C4E7154BE9
:1018A000154A1648682100F06DFA174B0F4A104888
:1018B000422100F067FA002B0AD02A7B934207D816
:1018C0002A6843001B18033BD31800229A70B5E71F
:1018D000084B094A0948682100F054FA054B064AAA
:1018E0000648682100F04EFA705A0010345B001070
:1018F000785A0010485700105C5B001064570010C5
:10190000B05A0010D85A00108C58001070B504005E
:101910000A00457B2900FFF769FF6073280070BD4E
:1019200070B50400002966D0437B8B420ED000299D
:1019300011D0037B99420ED805684B005B18033B1E
:10194000ED18AB78002B0CD1002055E00121FFF7FA
:10195000DDFF012050E0294B294A2A48682100F088
:1019600011FA002B1FD0027B93421CD800685A004A
:10197000D318033BC218C35C8B421AD0002B1BD078
:10198000227B934218D820685A00D318033BC01812
:1019900043788B4216D0002BF0D11B4B1B4A1C48BE
:1019A0006B2100F0EFF9154B154A1648682100F03D
:1019B000E9F96B78137007E0104B114A1148682160
:1019C00000F0E0F96B7843700023AB706B7001227C
:1019D0002000FFF70BFF0200617B814205D0200051
:1019E000FFF752FE6073012006E00A4B074A0848E1
:1019F000712100F0C7F9002070BDC04648570010A3
:101A00005C5B0010645700103C5500101C5B00101C
:101A1000785A0010FC5A0010F8B5DE4657464E467C
:101A20004546E0B506000F0015000A9A934250D3D0
:101A30001A0E92461B0298460A9A002340465146C7
:101A400001F0A2FB81467400A419A4002F4B9C4610
:101A500064446368834200D26060331FDBB29B46FC
:101A6000012B3CD9C0239B012343802212011A6021
:101A7000274BB200D158002907D0586901F046FB26
:101A8000431C5800C0180338FDD26D0123685D4027
:101A9000E0222A4080235B0123431A605A46012A30
:101AA00028D980239B012343802212011A604B46D0
:101AB00063604A4600234046514601F065FB144BE3
:101AC000B60098510120F0BCBB46B246A946A046DC
:101AD000F8BD104B104A1148332100F053F9012F83
:101AE000C0D1C0239B01234303221A60A368DB07F4
:101AF000FCD5CAE72168794003220A401A60A3682E
:101B00000125BD401D42FAD0CBE7C0460080004011
:101B100010040020685B0010C05B00107C5B0010AC
:101B200030B583B00C2000F00BF9FEF7ADFC0028B7
:101B30000DD0002304E02E4A99002E48885001332E
:101B4000092BF8D92A4B2C4A5A6203B030BD2B4BD3
:101B500000229A6700F0FCF8294B01221A60274BFB
:101B60005B6C012BFBD1274B03221A60234B9B6B31
:101B7000012BFBD1013300930433234A0121234875
:101B800000F04EF805230093214A0121214800F07E
:101B900047F8214B0093002202210420FFF73CFF6D
:101BA0001E4D00952B00002201210520FFF734FF78
:101BB000104C00942300002200210720FFF72CFF87
:101BC00000942300002200210820FFF725FF0A4B84
:101BD00000932300002200210920FFF71DFF00953C
:101BE0002B00002200210620FFF716FFADE7C046BC
:101BF00010040020006CDC021BB7000000800040D5
:101C00003CB0004030B00040002F685900800240D6
:101C1000008C864700C00240001BB7004059730784
:101C2000F0B5C64600B504000E0017001D00374889
:101C300001F06CFA8046364BFA18364B9A4239D886
:101C40000100380001F062FA0200103A98235B00AC
:101C50009A4235D86B1E062B38D8069B013B062BC3
:101C600034D83F09474537D32D04069B1B031D433A
:101C70002368002B36DB284B9C4244D080235B0139
:101C8000264A1360264A1360264A92681900914337
:101C9000FAD12660A060221DC0239B01134321229C
:101CA0001A602268002AFCDAE56008221A6080BC0B
:101CB000B846F0BD1C4B1D4A1D48112100F062F8CA
:101CC0001C4B1A4A1A48192100F05CF81A4B174AA3
:101CD00017481C2100F056F8184B144A14482321C9
:101CE00000F050F822683F231340B342C3D1A368E9
:101CF0001B051B0D8342BED1E368EE22D2021340C6
:101D0000AB42B8D1D3E780239B01B9E7001BB700F2
:101D100080E84BD380F8A93200C0024000E00040C8
:101D200000F0004000C00040D05B0010F45C0010E8
:101D3000305C0010705C00108C5C0010D85C0010EF
:101D400080239B000343014AD36270470080054013
:101D5000064BAA2212011A602F22DA60044B054AB0
:101D60001A60024B5B68002BFBDA704700400240B0
:101D70000060024000B0FA0000BEFDE710B5FFF7BA
:101D8000FBFF000030B583B00D001900002A0DD014
:101D9000084B002A0CD0084C019200932B00020043
:101DA000200002F0D1F90120FFF7E6FF034BF0E736
:101DB000024AF0E7005D0010105D00100C5D00109D
:101DC00070B52B4B2B4A1A602B4B2C4A1A602C4BAC
:101DD0009A682A4B9343FAD12A4C01E008CC9847E1
:101DE000294B9C42FAD3FFF79BFE234B274A1A60EC
:101DF000234B9B68DB43DB01FAD1254B40229A67DA
:101E00005A671A67DA66234C09E0234B234A2448B1
:101E10008721FFF7B7FF2000FEF79EFD0834214B16
:101E20009C4209D22368002BF5D0012BEDD1200074
:101E3000FEF7A0FD0C34F2E71B4DA9681B4CC02235
:101E4000200002F03FF8AC60EFF30583002B00D0D8
:101E500000BEFEF753FBFEF769FDFFF7CFF8144C09
:101E600001E008CC9847134B9C42FAD370BDC046A2
:101E700000E00040BFCDFBFE00F00040FE7F3C00D4
:101E800000C00040E4020020F4020020FFFFFF0138
:101E900000F00140D4020020405D0010B85D001049
:101EA000605D0010E402002000ED00E00000002072
:101EB000F4020020FC0200200FB400B583B00848F3
:101EC00002F012F9049B002B07D005A9019118001C
:101ED00002F01AF9034802F007F90120FFF74CFF5E
:101EE000A45D0010B45D0010704710B5002802D04A
:101EF0000B684968984710BD0100002007E0830087
:101F00001B185B00501C08601078C01830380A6835
:101F10001378303BDBB2092BF1D97047F0B5DE46C0
:101F200057464E464546E0B583B093461F000C9B8E
:101F30009A460D9C0E9B99460F9B9B0703D0B84673
:101F40000F00060022E00192A34688464E46B9469D
:101F50000700B44207D2551C4B4641462020B847E3
:101F600001342A00F5E73D004F465C46019B9B4645
:101F7000B1464646B84637002E0007E0013C551CE6
:101F80005346185D43463900B0472A00002CF5D16E
:101F900035003E0047460F9B9B0707D4100003B057
:101FA000F0BCBB46B246A946A046F0BDB0464E4680
:101FB000B9462F005D46531BB342EFD2541C4B462B
:101FC00041462020B8472200F5E7F0B5CE46474607
:101FD00080B585B0944698460C9D0D9C0EAB1B7841
:101FE0009946109A119B129EB7071CD4002B0CD057
:101FF000F7070AD54F46002F02D10C37374204D0DD
:10200000013B02E030272F550134944201D21F2CAE
:10201000F8D9F70707D59C4205D21F2C03D83027E3
:102020002F550134F5E7F70615D5770505D4002CB3
:1020300003D0944224D09C4222D00F9A102A2BD055
:102040000F9A102A30D00F9A022A35D01F2C02D8AE
:1020500030222A5501341F2C05D84A46002A31D097
:102060002D222A550134039602930194009543468C
:102070006246FFF753FF05B0C0BCB946B046F0BD9D
:10208000621E012C06D00F9F102F01D01400D4E740
:10209000023CD2E71400D0E7B206D1D41F2CCFD82F
:1020A00078222A550134D1E7B206CCD51F2CCAD8E4
:1020B00058222A550134C9E71F2CC7D860322A5547
:1020C0000134C3E7720703D52B222A550134CAE72E
:1020D0003207C8D520222A550134C4E7F0B5DE46C0
:1020E00057464E464546E0B593B081468A4608922B
:1020F00009931CAB10CB1B789B461E9D219B9846D9
:10210000002C03D1102342469A4390468023DB00E3
:1021100046461E4042461A4212D0002C22D00026CB
:102120000EE03031CBB2771C0AAA9355290020006B
:1021300000F0ECFFAC4216D31F2F14D83E00040071
:102140002900200000F0E2FFC9B20929E9D943467D
:102150009B0605D541235B18DBB20A3BDBB2E2E705
:102160006123F8E7270043460693209B05931F9BB6
:10217000049303955B46029301970AAB0093099B76
:10218000089A51464846FFF720FF13B0F0BCBB4603
:10219000B246A946A046F0BDF0B5DE4657464E46CB
:1021A0004546E0B595B0089009910A920B931E9EA2
:1021B0001F9C20AB1B789B46229B9946239D269B08
:1021C0009A463300234303D1103352469A43924632
:1021D0008023DB0057461F4052461A4219D0330075
:1021E00023432DD0002714E03032D3B27A1C90461E
:1021F0000CAAD3554A462B003000210000F0C4FF42
:10220000A5421FD819D043461F2B1BD847460600AE
:102210000C004A462B003000210000F0B5FFD2B27E
:10222000092AE1D953469B0605D541239B18DBB209
:102230000A3BDBB2DAE76123F8E7B145E3D901E015
:102240000023984653460693259B0593249B0493AD
:102250004B4603935B460293434601930CAB0093BA
:102260000B9B0A9A09990898FFF7AFFE15B0F0BCCE
:10227000BB46B246A946A046F0BD0000F0B5DE461A
:1022800057464E464546E0B591B083468A460C9285
:1022900098461A9C08941B9D099522002B0020004B
:1022A000290001F0FCF9002800D0E5E001225242AB
:1022B000D74B2000290001F0EDF9002800D0DBE029
:1022C00001225242D34B2000290001F0CDF9002811
:1022D00000D0D1E000220023089E3000099D290093
:1022E00001F0C2F9002800D0DDE0089A099B0692AF
:1022F00007938023DB001E9A1A400D921E9A1A4201
:1023000001D106231C930698079904000D000A00CA
:102310000600024300D1D1E0080D4005400DBE4C3F
:10232000A44660440A03120BBC4B13431F0001F088
:10233000C9F9BB4ABB4B01F054F9BB4ABB4B01F096
:1023400029F904000D000022B94B3000390001F0DA
:1023500018F9B84AB84B01F044F902000B0020000C
:10236000290001F017F901F0C5F9814601F0AAF939
:1023700004000D00B14AB24B01F033F90022B14B19
:1023800001F008F901F0B6F90600AF4AAF4B2000A2
:10239000290001F026F904000D00300001F092F947
:1023A000AB4AAC4B01F01DF902000B0020002900E4
:1023B00001F0E7F804000D0002000B0001F011F934
:1023C0000A900B91A44BF31800261F0522002B0046
:1023D0002000290001F0DEF80E900F9122002B0062
:1023E00000208021C90501F0CCF804000D00002276
:1023F0009A4B0A980B9901F0D6F80022984B01F0FD
:10240000C9F802000B000A980B9901F0CCF80022E1
:10241000944B01F0BFF802000B000A980B9901F0F1
:10242000C2F802000B002000290001F0B3F80200FE
:102430000B000E980F9901F0B6F80022774B01F0CF
:10244000A9F832003B0001F0CCF806000F000400B0
:102450000D00069A079B01F01DF9002830D00123DA
:102460005B429C46E14400227D4B3000390001F084
:102470009AF804000D0023E01E9B04931D9B039318
:102480001C9B0293089A099B0092019343460C9A65
:102490005146584600F0FCF811B0F0BCBB46B246BD
:1024A000A946A046F0BD0023002406930794069693
:1024B00080231B069C46654407951AE7002399462E
:1024C0004B466333C62B1ED804261E9B1B0526D500
:1024D0002B0023430FD0644A644B0698079901F000
:1024E000D1F8002879D00022614B0698079901F0B5
:1024F000BBF8002871D01C9B4B4506DD4A469B1A51
:10250000013B1C9303E00526DFE700231C93802397
:10251000DB001E9A1A431E920026002399461D9B3B
:102520009E4264D29F1B02231E9A1A400A921E9A50
:10253000134202D0002E00D000274B46002B07D0BC
:1025400022002B000698079901F02DF806900791BC
:10255000002200230898099901F086F8002848D144
:10256000444B1E9A1340049303971C9B0293069BB3
:10257000079C0093019443460C9A5146584600F03C
:1025800087F8002E00D187E71E9B9B063DD5452589
:10259000441C4346020051462800D8474A46D317F8
:1025A000D2185A4005230593013E04960023039355
:1025B0000A3302934B46DB0F0193009243462200FD
:1025C00051465846FFF78AFD0A9B002B00D163E76E
:1025D00002005F460C9E1D9D54E01C9B002B9ED06C
:1025E0000D9B002B9BD01C9B013B1C9397E7002766
:1025F00099E7069C079D220029008020000684465A
:1026000061440B0006920793AAE76525C0E7C04620
:10261000FFFFEF7FFFFFEFFF01FCFFFF0000F03F38
:10262000FB799F501344D33FB3C8608B288AC63FC1
:102630000000F83F61436F63A787D23F71A3790918
:102640004F930A400000E03F1655B5BBB16B024006
:10265000EF39FAFE422EE63FFF03000000002C4057
:1026600000002440000018402D431CEBE2361A3FC6
:1026700080842E41FFF7FFFF541C43465146202023
:10268000B8472200931BAB42F6D3100004E7C046C4
:10269000F0B5DE4657464E464546E0B595B0069045
:1026A000079193469946209F1E9A1F9B1000190080
:1026B00000F0F5FF002831D101225242BF4B1E9895
:1026C0001F9900F0D1FF002837D101225242BC4BA4
:1026D0001E981F9900F0DEFF00283DD10022B94B63
:1026E0001E981F9900F0D6FF002850D10022B64B4B
:1026F0001E981F9900F0B8FF002848D1002200233F
:102700001E981F9900F0B0FF002850D10023984672
:10271000229B5B0500D4B6E0002458E0229B039383
:10272000219B029303230193A84B00934B465A46E7
:1027300007990698FFF7F2FB0EE1229B0393219B7A
:10274000029304230193A24B00934B465A460799E8
:102750000698FFF7E3FBFFE00423229A1A40229930
:102760000B4210D09B4B002A0FD0042222990391D8
:1027700021990291019200934B465A460799069877
:10278000FFF7CCFBE8E0944BEDE70322EEE7229B5A
:102790000493219B039302971E9B1F9C009301941B
:1027A0004B465A4607990698FFF768FDD4E01E9AF3
:1027B0001F9B0020002100F0E4FE1E901F910123CA
:1027C0009846A5E70CAB30221A55013F01341F2C67
:1027D00001D8092FF6D81E981F9900F08BFF05002D
:1027E00000F070FF02000B001E981F9900F0C9FE58
:1027F0007A4BFA009B181A685B680A920B9300F0F8
:10280000F0FE0890099100F099FF060000F056FFD5
:1028100002000B000898099900F0B3FE0890099196
:1028200000226F4B00F036FF00282ED0013630001A
:1028300000F044FF02000B000A980B9900F01AFF09
:10284000002801D001350026002F2CD1280000F0EF
:1028500039FF02000B001E981F9900F092FE06003F
:102860000F0000225E4B00F0FFFE002846D1002240
:102870005B4B3000390000F00DFF00283ED1EB0724
:102880003CD501353AE0062746E70022544B08982C
:10289000099900F0E9FE0028D6D1002E01D0F307F7
:1028A000D2D50136D0E7AA461F2C11D8013F0A2104
:1028B000300000F02BFC651C30310CAB19550A219F
:1028C000300000F023FC092E0ED906002C00EBE7A7
:1028D00055461F2C0CD87B1E002F09D00CAA302186
:1028E00011551F000134F4E72B0055461C00F0E79A
:1028F0001F2C03D80CAB2E221A5501341F2C10D8D4
:102900000A21280000F0DAFB661C30310CAB1955A7
:102910000A21280000F0D2FB051E01D03400EDE7AB
:1029200034000323229A1340012B1CD01F2C06D8FD
:102930004346002B32D00CAB2D221A550134229B7A
:102940000393219B029301940CAB00934B465A4690
:1029500007990698FFF7E2FA15B0F0BCBB46B246FD
:10296000A946A046F0BD219B002B13D04346002B67
:1029700002D10C3313420FD0219B013B219319004C
:1029800003E00CAB30221A5501348C42CED21F2CFE
:10299000F7D9CBE72199F8E72199F6E7229B5B0766
:1029A00004D50CAB2B221A550134C8E7229B1B0718
:1029B000C5D50CAB20221A550134C0E7FFFFEFFF4D
:1029C000FFFFEF7F65CDCD4165CDCDC1D45D00105A
:1029D000D85D0010C85D0010D05D0010805F001051
:1029E0000000E03FF0B5DE4657464E464546E0B5AE
:1029F00093B082468B4690461193002900D100E3A4
:102A000000275446119B1878002800D1FCE22528A5
:102A100009D07D1C43463A005946A047119B01331B
:102A200011932F00EEE7013311930025119A1178CD
:102A30000B00203BD8B2102803D88300C248C358EB
:102A40009F460B00303BDBB2092B2CD92A292FD013
:102A500000230A93119B1A782E2A39D00023994615
:102A6000119A1378683BD9B2122976D88B00B749EE
:102A7000CB589F4601231D4301321192D6E7022312
:102A80001D4301321192D1E704231D4301321192FB
:102A9000CCE708231D4301321192C7E710231D43E1
:102AA00001321192C2E711A8FFF726FA0A90D1E786
:102AB0001C9B1A1D1C921B68002B04DB0A93119BA4
:102AC00001331193C6E7022215435B420A93F6E7EE
:102AD0008022D20015435A1C11925A781300303BC1
:102AE000DBB2092B04D92A2A07D000239946B7E77D
:102AF00011A8FFF701FA8146B2E71C9B1A1D1C9230
:102B00001B68002B04DB9946119B01331193A7E747
:102B10000023F8E780235B002B43511C119152786E
:102B20006C2A01D01D0018E0C0239B001D43013119
:102B3000119112E080232B43511C11915278682A85
:102B400001D01D0009E0C0231D430131119104E0B3
:102B500080235B001D4301321192119B1878672876
:102B600016D8252826D30300253BDAB2422A21D8DD
:102B70009300774AD3589F4680239B001D43013220
:102B80001192EAE780235B001D4301321192E4E7D2
:102B900078280FD869280DD30200693AD2B20123F0
:102BA00093406C4A13420FD11A0600D503E25B052D
:102BB00000D594E17D1C43463A005946A047119B3D
:102BC000013311932F001DE7782809D0622838D0EF
:102BD0006F2838D0582838D010239D430A2600E0AB
:102BE0001026582833D0692803D0642801D00C223D
:102BF00095436A0501D50122954369282AD06428A6
:102C000028D0AA0500D5A7E0EA0500D5C0E06A06ED
:102C100000D4D2E01C9A111D1C911168FF220A40B9
:102C200005950A9B04934B46039302960023019358
:102C3000009243463A0059462000FFF74FFA07003A
:102C400027E00226CDE70826CBE71026C9E7202299
:102C50001543C8E7AA0520D4EA0550D46A0666D50C
:102C60001C9A111D1C911168FF220A40D0171118DF
:102C7000414005950A9B04934B4603930296D20F5D
:102C80000192009143463A0059462000FFF726FA88
:102C90000700119B01331193B4E61C9A07320721F8
:102CA0008A43110008311C91116853689C46DB1758
:102CB0000C930D930C9A0D9B100048400E906246A9
:102CC00053400F930E980F990C9A0D9B801A9941BF
:102CD0000E900F9108950A9B07934B460693049616
:102CE000002305936346DA0F029200900191434658
:102CF0003A0059462000FFF74FFA0700C9E71C9A2F
:102D0000111D1C911268D0171118414005950A9B9E
:102D100004934B4603930296D20F019200914346CF
:102D20003A0059462000FFF7D9F90700B1E72A0613
:102D300005D51C9A111D1C910023D25E96E71C9AA2
:102D4000111D1C91126891E7E05D0010245E0010D7
:102D5000705E0010419000001C9A073207218A43E0
:102D6000110008311C9108950A9B07934B46069366
:102D7000049600230593029353681268009201930E
:102D800043463A0059462000FFF706FA070080E75D
:102D90001C9A111D1C9105950A9B04934B460393A5
:102DA0000296002301931368009343463A00594664
:102DB0002000FFF793F907006BE72A0606D51C9A57
:102DC000111D1C9112681204120C29E71C9A111D86
:102DD0001C91126824E746281AD01C9B073307224F
:102DE00093431A0008321C9204950A9A03924A46A9
:102DF00002921A685B680092019343463A00594672
:102E00002000FFF745FC0700119B01331193F9E502
:102E100020231D43E1E7672801D0472802D1802302
:102E20001B011D43452801D0472801D120231D4304
:102E30001C9B0733072293431A0008321C92049507
:102E40000A9A03924A4602921A685B6800920193BA
:102E500043463A0059462000FFF710FA0700119B3D
:102E600001331193CEE502231A002A4092462B42E9
:102E70001FD001251C9B1A1D1C927A1C91461878A4
:102E800043463A005946A0475346002B16D1119BA2
:102E9000013311934F46B5E5561C43465946202051
:102EA000B8472B0032005D1C9C42F5D83C0017004F
:102EB000E0E701233A0027000A9CF4E74A46A146CE
:102EC0000A9C06E0571C434659462020C847350057
:102ED0003A006E1CAC42F5D84C469146D7E71C9B95
:102EE0001A1D1C921E684B46002B00D1013B31007D
:102EF00001E0013113000A78002A02D05A1E002B8B
:102F0000F7D1891B10918023DB002A001A409246DA
:102F10001D4203D0494501D94B46109302231A00A4
:102F20002A400B922B4205D03A00574623004C46CC
:102F3000994620E03A00109B5F46B346260006E023
:102F4000541C434639002020B0472B0022005D1C52
:102F50000A999942F4D834005E46BB46109557460C
:102F600023004C46994606E01C000136551C43469A
:102F70005946C8472A003078002804D0002FF4D0E2
:102F8000631E002CF0D117004C460B9B002B03D185
:102F9000119B0133119335E50A9F109B06E0561CE7
:102FA000434659462020A0472B0032005D1C9F421B
:102FB000F5D81700ECE721232B431C9A111D1C9117
:102FC00012680593082304934B460393102302933E
:102FD00000230193009243463A0059462000FFF730
:102FE0007DF80700119B013311930BE57D1C4346CF
:102FF0003A0059462520A047119B013311932F0019
:1030000000E50B4B9A46FBE4A246474502D34346F4
:103010005A1E00E03A00434659460020D047380087
:1030200013B0F0BCBB46B246A946A046F0BDC046B0
:10303000E91E001000B585B00290039101210448FB
:10304000009313004A4202A9FFF7CCFC05B000BD73
:10305000EB1E001001480421014B1847B00200206C
:103060008530001010B5010018231B881422108829
:10307000984710BD10B5010018231B881622108830
:10308000984710BDF0B5C64600B507000E000025F4
:103090000123984600E00135B5420AD2AC003C1944
:1030A0002068FFF7DFFF20600028F4D10023984656
:1030B000F1E7404680BCB846F0BD0000124A936F6D
:1030C0009B0815D29066D166002905D0FFE7FFE77F
:1030D000FFE7516F106F704704B580210906C217D2
:1030E0005140002800D0C84302F016F9002104BD69
:1030F000F0B5146E556E576F166FFFF7E3FF146649
:10310000556657671667F0BD000000D0114A936FEF
:103110009B0813D210665166002905D0FFE7FFE730
:10312000FFE7516F106F704704B5002801D00020F1
:10313000C04302F0F1F8002104BDC046F0B5146EA2
:10314000556E576F166FFFF7E5FF146655665767A4
:103150001667F0BD000000D094464A4A926F92086C
:10316000624601D228E0C046F0B5464E346E756E18
:10317000776F366F00F020F89446424A1466556621
:10318000576716676246F0BD94463E4A926F9208B2
:10319000624601D254E0C046F0B53A4E346E756EC8
:1031A000776F366F00F04CF89446364A14665566D1
:1031B000576716676246F0BD002B24DB11D000294B
:1031C0003EDA00B5C943404200D1013100F038F881
:1031D000C943404200D10131DB43524200D10133A7
:1031E00000BD002AEBD1002801D1002905D0002024
:1031F000C90FC90701D1C043410800B502F084F8E6
:103200000022002300BD00B500290ADBDB43524247
:1032100000D1013300F014F8C943404200D101311C
:1032200000BDC943404200D10131DB43524200D1CD
:10323000013300F005F8DB43524200D1013300BDF9
:10324000002923D1002B18D1002A0CD0BC460D4FE9
:1032500038667A6600210023FFE7FFE7FFE77A6F11
:10326000386F67467047002801D00748010000B555
:1032700002F04AF80022002300BD02000B000020EB
:1032800000217047000000D0FFFFFFFF002B00D09F
:10329000BFE0130C28D1002AE7D080B4114F396663
:1032A0007A66FFE7FFE730B4040C7B6F396F1B04CD
:1032B00023433B667A66FFE7FFE7FFE7C04684B239
:1032C0007B6F3D6F1B0423433B667A66FFE7FFE796
:1032D000C04600232C042D0C7A6F386F0019694109
:1032E000B0BC7047000000D0F0B594460025140E25
:1032F00001D112020835140F01D112010435940FC7
:1033000001D192000235D40F01D152000135D40B06
:103310000134254F7C66254C3C660E0C93B2FFE7CA
:10332000FFE7FFE73C6F6643360C7703BE46734307
:10333000DF0B5B04C01AB941130C7343DB18C91AC5
:10334000CE086643360CB64493B273431F0F1B017D
:10335000C01AB941130C73431F0B1B05C01AB941A6
:10336000860D8F023E436643360C092D24DB520A3C
:103370007243801A7703460A6643360C16235B1B9A
:10338000DE40DF40BF1964466643821B7046043549
:1033900006330100D940A840C01900D30131A24230
:1033A00006D20023F0BD0000000000D0FFFFFFFFA9
:1033B000121B0130F3D3F1E709277F1BFE4064465F
:1033C000A2B27243801A00D20139220C7243130C4C
:1033D0001204821A99410B0070460435133701001C
:1033E000F940A840801900D30131002B02D1A2423C
:1033F0000AD2F0BD013000D30131121BFAD2013BD9
:10340000F8D1A24200D2F0BD013000D30131121B2D
:10341000F7E7F0B51C0C00D080E00CB400251C0AC6
:1034200004D11B02160E3343120208351C0B04D1C3
:103430001B01160F3343120104359C0B04D19B0072
:10344000960F334392000235DC0B02D192185B4198
:1034500001351C00971864410134464F7C66464C88
:103460003C660E0CFFE7FFE7FFE7C0463C6F664394
:10347000360C7703BE4697B27743C01B00D20139A2
:10348000C01B00D201399FB27743C91BC91B170C5F
:1034900077437E04FF0B801BB941CE086643360C90
:1034A0000C2D33DBB644120B1F053A431B0B97B2AE
:1034B0007743C01B00D201399FB27743C91B170C59
:1034C00077433E043F0C801BB941860D8F023E437B
:1034D000664329277F1BFE400C3D7746AF40BF194E
:1034E00030BCA2B2ABB272437343801A9941220C32
:1034F0007243130C1204801A994102000B00013729
:10350000001BA941F9D2781E0021F0BD0C277F1BBA
:10351000FE4077467F0BAF40FF19E0E700245D1CBB
:1035200007D0144F7D663966FFE7FFE7FFE7FFE747
:103530003C6F95B29EB265436643401BB141150C8A
:103540001E0C6543664336042F0C3E432D04401B7E
:10355000B141994204D202000B0020000021F0BDCD
:1035600001D19042F7D3801A994101349942F2D3A4
:10357000F6E70000000000D0FFFFFFFF4840414099
:10358000484018B41B4B5B68FC46019308BD04DF40
:103590005738001018B4174B1B68FC46019308BD40
:1035A00000DF613800109446134A926F920809D2E6
:1035B000624618B40F4BDB68FC46019308BD0CDF74
:1035C000193B00100C4AF0B5146E556E576F166F0C
:1035D0006246FFF7EEFF084A14665566576716679E
:1035E000F0BD18B4034B9B68FC46019308BD08DF8F
:1035F000BD3900103C070020000000D0FFB550404E
:103600004240504059404B40594000E0FFB5154FF3
:103610004C00640D03D0BC4204D10C0314D800202C
:10362000090D09055C00640D03D0BC4204D11C03E4
:103630000AD800221B0D1B0501264B4009D44B4024
:1036400003D58B4200D18242FFBD9942FCD190420A
:10365000FFBD0B43DB1803431343F5D0C94349189F
:10366000FFBD0000FF07000000B5FFF7CFFF80415E
:1036700000BDC04600B5FFF7C9FF01D9002000BD5D
:10368000012000BD00B5FFF7B9FF01D9002000BD42
:10369000012000BD00B5FFF7B1FF804100BD012052
:1036A00040054A00121804D85A00121801D8002008
:1036B000704701207047002070470000002100285B
:1036C00005D17047C1174840401AFAD0C90713B551
:1036D000064B1B6898470CBC441CA2401005120BFB
:1036E0000349091B09051943114310BD3C0800207B
:1036F0001F04000010B54C00620D8023D218DB00BF
:10370000D21A5B057E2A10DD9E3A13DACC17090324
:10371000490819435242D140640001341532202A2D
:1037200005DAD0400843604310BD002010BD0846B4
:10373000604310BDC80FC018013810BD18B4044B49
:103740005B6AFC46019308BD24DFC93C0010000001
:103750003C07002070B513231C78012C14D0012CD9
:1037600014DC022C02DC1F4B1F4A93641F48FFF736
:1037700079FC1F4B186070BD1A491B4A9800815094
:1037800001331F2BF8D9EAE70023FAE71948FFF7BE
:1037900071FC05001848FFF76DFC023803789B00A8
:1037A0007F2B19DD10488022290000F08BFB022CB2
:1037B000D7D1124B1A88B5231B029A4209D1104B5C
:1037C0001A88104B9A4204D10F4B1A880F4B9A4219
:1037D000C7D00020FEF770FB0D4B0E4A0E48322179
:1037E000FEF7D0FA1D3800103C0700204C330000D3
:1037F0003C080020534400005346000054380000A9
:10380000D8380000494600009C38000059460000A6
:10381000D05F00106C6000102460001007B5604697
:10382000002800D100BE01880A0A0230DF2AFAD13E
:10383000C9B2820804D3028840880004104300E023
:103840000068024A5050039007BD00003C0700206A
:103850000FB403BC0CBCF0B50124E407634000E0E6
:10386000F0B50C0DCF0F661E3605891B640503D31A
:10387000C943404200D30131640D03D0661CF60AEF
:1038800007D0E41B00207F00791C89078912803C47
:1038900024031D0DDF0F6E1E36059B1B6D0503D324
:1038A000DB43524200D301336D0D03D06E1CF60A88
:1038B00007D0ED1B00227F007B1C9B079B12803DE5
:1038C0002D032F1B661B58D4A446202E46DA203722
:1038D0001400BC401D00BD40F24033412A43801813
:1038E0005941CB0F05D0C943C04300226442504127
:1038F000514162464D0D28D10D0D07D100281FD032
:10390000241940414941013A0D0DF9D0640006D314
:10391000013000D30131002C01D140084000013AB0
:103920000BD4941CE40A04D112051144DB0719449A
:10393000F0BDD907204B194300E0D9070020F0BDA6
:103940000029DDD1002CDBD1F0BD0132C6074008D3
:10395000CD0728434908002EE1D0D9E73C2E29DACB
:10396000203E40371400BC4000D00124F2401443F4
:103970001A00BB401C43D317ACE7AC46202F08DA33
:1039800020360400B4400D00B540F84039412843CA
:10399000A5E73C2F0CDA203F40360400B44000D0AD
:1039A0000124F84004430800B1400C43C117EAE782
:1039B00010001900002494E70000F07FF0B50C0D12
:1039C000661E3605891BE60A6405640D02D0651C77
:1039D000ED0A04D0002001210905803C2403A446FF
:1039E0001C0D671E3F05DB1BE70A6405640D02D052
:1039F000651CED0A04D0002201231B05803C240332
:103A00007740644497B484B296B27443070C7E4303
:103A1000150C6F4380B26843361802D301200004AE
:103A20003F183004350C00197D41844688B29AB2A3
:103A300050430C0C62431F0C7C438EB27E439219A0
:103A400002D301263604A4191604170C3618674150
:103A500001BC81B29AB25143040C62431B0C5C431B
:103A600080B25843121802D3012000042418100415
:103A7000130C401863412D185E410020474106BCDD
:103A800088B293B258430C0C6343120C544389B26E
:103A900051435B1802D301210904641819041A0C5C
:103AA000091862416D1856410020474118BCF902BF
:103AB000720D1143F0026A0D1043ED020A0D03D19D
:103AC0006D1940414941013B124E9B1B7600B342A8
:103AD0000ED26D0007D30130002671416646354392
:103AE00001D1400840001B05C918E4072144F0BD7E
:103AF0000BDA013306D1013004D101314F0D01D071
:103B00004908F2E7E1070020F0BD01363105002049
:103B1000EBE70000FF030000F0B51C0D671E3F053A
:103B2000DB1BE70A6405640D02D0661CF60A04D0AC
:103B3000002201231B05803C2403D0252D060026EE
:103B4000F6432E661E096E66CE0FF619B44649007E
:103B50004F0D02D07E1CF60A03D000200021403F0A
:103B60003F033E1BB600B444013F7F05C91B490813
:103B70002E6F013676089C02950D25437543ED1393
:103B80007543AD1301356D10F603761B0CB4CC02F2
:103B9000450D2C43A2B2B3B25A43270C7B43350CDC
:103BA0006F43A4B26C431B1902D3012424043F19B0
:103BB0001C041D0CA4187D4124196D41009A91B27A
:103BC000ACB26143170C7C432B0C5F4392B25A4357
:103BD000A41802D301221204BF182204230C521885
:103BE0007B41019C6C431B19520ED9010A434401CD
:103BF000A01A81B2B2B2514303145A43360C734334
:103C000087B27743D617D21900277E4136049B1915
:103C10001704160C7F185E417316ED18F301002689
:103C200080337541A90F06D16400690AE8055B0A73
:103C3000184309D22FE00422944480337541A90A25
:103C4000A8059B0A184326D3404149412404009A01
:103C5000019B0D005543641B4343E41A95B286B2A1
:103C60007543170C7E43030C5F4392B25A43B61858
:103C700002D301221204BF183204330C52197B41C3
:103C800052429C41002C02D4002201305141400894
:103C9000CA071043490802B06246D7079210084B82
:103CA000D218084B9A4203D212058918C919F0BDDF
:103CB0000020002A01DC3900F0BD01331905F5E7C9
:103CC000FD030000FE070000002200B5203200F0D6
:103CD00004F8080000BD000000220B150AD410B53E
:103CE000944600F031F81414013400DA0021CB17A7
:103CF000144C20470020002170476244343A0CD411
:103D00000C2A07DA04009140904052422032D440FD
:103D1000214310BDD843D94310BD203207D40C46EF
:103D20009440524220321141D040204310BD08003F
:103D3000C917203203D452422032104110BD18005E
:103D4000190010BDFB3C00100A0DCC0F531E1B05C3
:103D5000C91A520503D3C943404200D30131520D61
:103D600003D0531CDB0A07D0121B00206400611C27
:103D700089078912803A1203014BD21A704700005A
:103D8000FF03000070B513231E782A48FFF772F96D
:103D90000500012E11D0012E09DDAB1E1B789B0002
:103DA0007F2B40DD24488022290000F08BF8234837
:103DB000FFF758F9224B186070BD1F4854222900A4
:103DC00000F080F81F4B1A881F4B9A421CD1A72382
:103DD0009B011A881D4B9A4216D11D4B1A881D4B08
:103DE0009A4211D11C4B1A8894239B019A420BD101
:103DF0001A4B1A881A4B9A4206D11A4B1A681A4B58
:103E00009A4201D1152307E01848FEF755F8184CDF
:103E1000094A99008C5001331F2BF8D9144B064ADC
:103E20001362D361B7E7134B134A14484221FDF7DD
:103E3000A9FFC04653460000400800204C33000054
:103E40003C080020EE290000C40F0000C20D000055
:103E5000962B0000C0B50000182B0000CC2A0000F3
:103E600010B50000FC2C000051ED87640C5D0010C3
:103E7000813E001080600010FC600010B4600010F3
:103E800007B56046002800D100BE01880A0A02304A
:103E9000DF2AFAD1C9B2820804D30288408800041C
:103EA000104300E00068024A5050039007BD000034
:103EB0004008002001480421014B1847C00200209F
:103EC00085300010014B5B6818470000C0020020DD
:103ED00010B50300080011001B68984710BD0000D2
:103EE000F8B507000D001600437D002B02D000241A
:103EF00000200CE003681100280098472DE03B7D6E
:103F000010E03B68154802219847601C0134B44218
:103F100014DA002CF3DD2B19013B1B780D3B5A42C0
:103F20005341DBB22A5D0A2AF0D1002BEED1A04228
:103F3000E7DA3B68211A28189847E2E7B04203DA2B
:103F40003B68311A28189847002E06DDAD19013D4F
:103F50002B780D3B5A4253413B75F8BD8C610010E4
:103F600070B505000368002B16D00C4B1C6805E0EB
:103F7000290004C92000FFF7B3FF2469002C09D0F1
:103F80002368002BF9D0064B1B68002BF0D0A3420E
:103F9000F3D1EDE700232B6070BDC046780400200C
:103FA0007C04002070B505000C000B68802B05D048
:103FB00023685A1C2260E418257170BD0800FFF7C1
:103FC000CFFFF5E710B5FDF727FA02000B1E0BDB5C
:103FD0000D48002112184B41002B0BDB002B0DDB91
:103FE0000A4801F0A1F910BD094B0A4A0A483F21CD
:103FF000FDF7C8FE01225242084BEFE7044B054A89
:1040000005483F21FDF7BEFE40420F00DC020020C4
:10401000185600107461001034560010FFFFFF7F27
:1040200010B5024801F068F910BDC046DC0200205E
:10403000F0B5CE46474680B583B006000D009046E9
:104040001C00FFF7BFFF81466B1C05D0002C08D079
:10405000194F1A4B1C6807E0300001F01BF90500EE
:10406000F4E7174FF5E72469002C17D02368002BDD
:10407000F9D0144B1B68002B01D0A342F3D12A00C6
:1040800031002000B8474346002BECD06B46D91DC9
:104090000A230B7001222000B847E4E74B46002BAF
:1040A00007D16B1E9D41E8B203B0C0BCB946B04613
:1040B000F0BDFFF7B5FFF4E7D13E00107804002013
:1040C000E13E00107C04002010B5064B1C6801E0A6
:1040D00098472469002C03D06368002BF8D1F8E7D7
:1040E00010BDC0467804002070B5050001F0D2F87C
:1040F00004000023012201002800FFF799FFFFF7C9
:10410000E3FF200070BD000070B5A2B004000E00F7
:10411000FFF758FF0500002301930A4833002200EF
:1041200001A9FEF787FF040001A8FFF719FFFFF7B9
:10413000CBFF002D02D1200022B070BDFFF770FF31
:10414000F9E7C046A53F00100FB400B583B004A93D
:1041500001C90191FFF7D8FF03B008BC04B01847AC
:10416000104A53071BD0D11D0723994380239B027C
:104170005B1A9B180A000C48026000214160D318AA
:10418000083B072083430948036059601960991A66
:1041900051601360064B1960064B1960704780230D
:1041A0009B02E8E7540900209C090220B404002087
:1041B000700902206C090220F8B5041E10D003001B
:1041C00009330CD8083407231A002240234207D0B1
:1041D00001339B1A093AA2422AD3E41800E00024D2
:1041E00000F008FD484B1B68002B23D0002C00DAA0
:1041F0007AE000D17AE0454B1868A04200D277E01F
:10420000434B1A68434B9A4217D3434B9A4214D8F4
:104210003F495368A3421CD21368002B19D03D4973
:104220008B4210D311003C4A93420CD81A00F0E79D
:104230000024D5E7FFF794FFD8E7384B384A3948D0
:10424000F621FDF79FFD354B354A3648FC21FDF739
:1042500099FD2D4B1B6893424CD00D6808352D4BB2
:104260009D422CD32C4B9D4229D813680B60536878
:10427000A3422BD31B1B102B07D9161977072CD160
:10428000736054600B6833600E605168401A1F4BB6
:104290001860254B1B68984201D2234B186080237D
:1042A0001B060B43536000231360204A136801333D
:1042B000136000F06BFD6B071ED12800F8BD1C4B8E
:1042C000174A832117484900FDF75CFD194B144A32
:1042D000872114484900FDF755FD174B104A182156
:1042E0001048FF31FDF74EFD0025E2E70025E0E72D
:1042F0000025DEE70025DCE7104B094A5E2109486E
:10430000FF31FDF73FFDC046B40400206C090220D8
:104310009C09022054090020530902204062001029
:10432000D06300100C620010700902207C0902208A
:10433000B46200102C6300106063001094630010DE
:1043400070B504000D00FDF767F802000B1E0DDBD1
:1043500020002900801A99410C4A01235B428018F1
:10436000594100290CDC07D0002070BD084B094AD8
:1043700009483F21FDF706FDFA239B009842F3D33D
:10438000FA2292000023FEF7E7FEEEE718FCFFFF9B
:1043900018560010C064001034560010044B8022E0
:1043A00052051A60BFF34F8FBFF36F8F7047C0463F
:1043B00004ED00E072B6044A136801331360BFF3E2
:1043C0004F8FBFF36F8F70475409022010B5094B10
:1043D0001B68002B06D0013B064A1360002B00D15E
:1043E00062B610BD044B054AEE2105484900FDF7B1
:1043F000C9FCC046540902202C640010106500104E
:10440000EC630010EFF3108072B6704780F31088F1
:104410007047000010B5094B1B78D02212061068B7
:10442000834200D010BDEFF30583002B02D05B0068
:10443000C018F7E700F096FEF4E7C046D00200206F
:1044400010B582B00A0003682C498C466344991069
:104450000C005C2B01D918390C000121A140284B1C
:104460001C78D0231B061B689C4220D040BF0468E8
:10447000244B1B689C423BD01C68002CFCD0BFF333
:104480005F8F214C23680B4323601E4B1B68BFF3D7
:104490005F8F002119600023D02109064B65016858
:1044A000BFF35F8F0B6082F3108802B010BD40BF76
:1044B0000368BFF35F8F0020186082F31088EFF36A
:1044C0000583DBB2002B04D1104B186800F066F9AD
:1044D000EBE7002301930D4B186801AA00F0AEF939
:1044E000019B002BE1D00A4B802252051A60DCE7C9
:1044F000054C23680B432360CDE7C04600FFFF2F28
:10450000D0020020A80400205809022068090220D7
:1045100004ED00E0F0B583B006000F0015001C00AC
:10452000EFF30583DBB2002B17D10368002B1AD001
:104530002F4A1178D02212061268914219D0BFF387
:104540005F8F00221A6087F3108828002100FCF793
:10455000BBFE0400200003B0F0BD264B264A2748CE
:104560002749FDF70FFC274B234A24482649FDF72E
:1045700009FC28002100FFF7E3FE031E25D0326866
:10458000BFF35F8F0021116087F310881F4A106806
:1045900032681F498C46624491100E005C2A01D992
:1045A00018390E000121B14000930023012200F0D0
:1045B00063F8184B5B6A9C4211D8164A926AAA4269
:1045C00013D29C4209D001240AE03368BFF35F8F05
:1045D00000221A6087F31088EBE7002400E0002433
:1045E000002CB7D1FFF7DAFEB4E70124F8E7C046A4
:1045F000D002002040640010D8640010EC6300106A
:104600004B040000AC6400104C0400006809022058
:1046100000FFFF2F0040054010B5FBF77FFF054B63
:104620009C4660448000044B186000F018F8034B6F
:10463000186010BD40000034A80400206809022062
:10464000002A03D1014206D1100003E0084088424D
:1046500003D0002070470120FCE70120FAE710B5E5
:104660001C20FFF7A9FD041E03D0002308C000F0A2
:10467000F1F8200010BD0000F8B5CE46474680B5E1
:1046800006000D009046994600282ED00B0E1F06FE
:10469000002B31D1002936D000F06AFD002802D16C
:1046A000089B002B36D100F0A5FA34684A46290051
:1046B0002000FFF7C5FF002833D04346002B02D06F
:1046C0002300AB43336000F061FB002F08D00028CB
:1046D00041D000F0BFFD040083013FD52402240A2D
:1046E0002000C0BCB946B046F8BD264B264A48213A
:1046F0002648FF31FDF746FB254B234AA4212348DA
:104700004900FDF73FFB234B1F4A4A211F48FF3159
:10471000FDF738FB204B1C4AA6211C484900FDF739
:1047200031FB089B002B14D04346002B0ED13900DF
:104730004B46002B02D08023DB0419432943301D54
:10474000089A00F0D3FB3C00089FBCE78021490495
:10475000EEE7089FB7E7FFF721FEBAE7FFF72AFE6B
:1047600034684A4629002000FFF76AFF002805D078
:104770004346002B02D02300AB433360FFF726FEF5
:10478000ACE7C04624650010446600103065001098
:104790005865001090650010A8650010F8B5040079
:1047A0000D0000280CD00B0E1F06002B0ED10600AA
:1047B0000C3600F01FFA206923682B43236017E0B2
:1047C000164B174A17481849FDF7DCFA174B144ADD
:1047D00014481749FDF7D6FA21681940994206D1C5
:1047E00011E0236880218904194300F03FFC280070
:1047F000B0420CD04568026813021B0A5101EBD489
:1048000021680B42F3D0D201EBD51F43E9E72568BD
:10481000BD43256000F0BAFA2800F8BD24650010F9
:10482000306600103065001032020000FC65001098
:104830003302000010B5FFF7B1FF10BD10B5130033
:10484000034C0A000100200000F010FD10BDC0461E
:104850003548001003000833436001225242826051
:10486000C360036100230360704730B50D686B1CA3
:1048700010D0030008331C005B681A68AA42FAD9FA
:1048800063684B6099608C60616008610368013304
:10489000036030BD0469F3E70369416882688A6098
:1048A000416851605A68824205D00022026118684E
:1048B00001381860704782685A60F6E770B50400E6
:1048C0001500866B026C002A0CD10368002B03D004
:1048D00000200136A66370BD806800F05BFC0023F9
:1048E000A360F6E7002D0DD14068FFF7EBFA226CCC
:1048F00063689B186360A26893421AD3236863605D
:104900002800E6E7C068FFF7DDFA226C5142E36851
:104910009B1AE3602268934202D2A3685B18E360AB
:10492000022D01D00020D4E7002E04D0013E00204B
:10493000CFE72800CDE70020CBE7000070B582B0BC
:104940000190846C002C0AD0A26BE36B9A420CD2CB
:10495000A26B93420FD80025280002B070BD194BFE
:10496000194A1A481A49FDF70DFA1A4B164A174800
:104970001949FDF707FA4523E65C76B2002201A942
:104980002000FFF79BFF0500731C0AD1636A002B10
:10499000E2D02000243000F0E9FA0028DCD0012524
:1049A000DAE700F02FF98642D6D27F2E04D0013606
:1049B00076B24523E654CFE7084B034A034808493B
:1049C000FDF7E0F958660010EC6700106C66001007
:1049D000160D000090660010170D0000D86600103C
:1049E000370D0000F0B5D646474680B583B00400C9
:1049F0000F0001921D00002819D000291DD0022DA2
:104A000002D1E36B012B21D1FFF7FCFC8046A26BA6
:104A1000E36B9A4220D3022D1ED000244046FFF7BC
:104A2000F5FC200003B0C0BCBA46B046F0BD334B25
:104A3000334A34483449FDF7A5F9036C002BDED026
:104A4000324B2F4A2F483249FDF79CF9314B2C4A03
:104A50002C483149FDF796F94523E65C76B2A36B05
:104A60009A462A0039002000FFF728FF731C25D141
:104A7000A36C002B10D0022D02D15346002B30D155
:104A80002000FFF75BFF00282DD0019A002A2CD0D0
:104A9000012313600124C1E7636A002B01D10124C3
:104AA000BCE72000243000F061FA00281FD0019AF2
:104AB000002A1ED0012313600124AFE700F0A2F802
:104AC000864218D27F2E05D0013676B24523E654B1
:104AD0000124A3E7114B0A4AA5210A48C900FDF7A2
:104AE00051F901249AE7012498E7012496E701246B
:104AF00094E7012492E7012490E7C046FC66001089
:104B0000D06700106C6600109A040000286700103F
:104B10009B040000806700109C040000D866001011
:104B2000084B1B681B68002B04D1074B0122524223
:104B30001A607047034B1B68DB681A68024B1A60E7
:104B4000F7E7C046B004002074090220F0B583B036
:104B500004000191214B1E68214B1F68214B1D68E9
:104B6000214B19686D220020885418680430FFF723
:104B700093FE631C0DD034191B4B1B685C60A6426E
:104B80001ED9194B196804312800FFF76EFE03B0D7
:104B9000F0BD019B002BEED0144A5168124B1868EF
:104BA000816018688C68C460186804306060186898
:104BB000043088601B685A61136801331360E6E7AC
:104BC000094B196804313800FFF74FFE084B1B688A
:104BD000A342DCD9064B1C60D9E7C046B8090220C5
:104BE000B0040020B8040020AC040020A409022076
:104BF00074090220024A1368013313607047C046EB
:104C000060090220014B18687047C0465C09022009
:104C1000F8B54F4B1B68002B00D093E04D4B1E683E
:104C200001361E60002E10D14B4B1B681B68002BF9
:104C300021D1494A1168494B186810601960484AE7
:104C4000136801331360FFF76BFF464B1B68B342D9
:104C500017D90020444B1B68D96A444A8B005B1863
:104C600099008B58012B00D90120414B1B68002B68
:104C70006DD001206BE03F4B3F4A40484049FDF773
:104C800081F8002033E0374B012252421A60E1E7FD
:104C9000344B1A60DEE7D96851603EE0002199622A
:104CA000116801391160DA6A364909688A4201D906
:104CB00034490A602D499400A418A2008A18526849
:104CC0009A609468DC6065609560DC6AA2001719E0
:104CD000BD006D185D61BD006D580135BC006550AB
:104CE000DA6A214B1B68DB6A9A4200D901201A4B11
:104CF0001B681B68002BC6D0174B1B68DB68DB6882
:104D00005A689642C4D35A699C68D968A1609C6865
:104D10004C6051681D1DA942BDD000215961116828
:104D2000013911609A6A002ABDD0DC69196AA16054
:104D3000DC694C605468190018318C42AED1196A94
:104D40005160ABE7104A1368013313600020F8BDCF
:104D500060090220B8090220B0040020B804002035
:104D60007809022074090220AC040020BC04002051
:104D7000C009022034680010A069001010680010FB
:104D800092120000640902208009022010B5FFF78A
:104D900011FB4A4B1B68002B0DD0484B1A68013A97
:104DA0001A601B68002B00D082E0454B1B68002B6B
:104DB0000DD100247DE0434B434A44484449FCF76D
:104DC000E1FF196A516015E0D968516021E00023C4
:104DD000404A1268002A4AD03E4BDB68DB689A6A78
:104DE000D869196A8160D86948605068190018311B
:104DF0008842E6D0002199621168013911605A6930
:104E00009868D96881609868486051681C1DA14203
:104E1000DAD000215961116801391160D86A2E4A2F
:104E20001268904201D92C4A10602C498200121855
:104E300092008A1852689A609068D86044609460C2
:104E4000DC6AA20010198000401858611019800017
:104E500040580130121992005050D96A204A126805
:104E6000D26A9142B4D91F4A01211160B0E7002BE8
:104E700001D0FFF755FE1C4B1C68002C0CD1194BC0
:104E80001C68002C15D0164B1B68FFF787FA01240D
:104E90000FE0013C002C07D0FFF7BAFE0028F8D045
:104EA000104B01221A60F4E70F4B00221A60E6E76C
:104EB0000024FFF78BFA200010BDC04660090220D5
:104EC0005C090220AC680010B46900101068001082
:104ED000C10F00008409022064090220BC040020E4
:104EE000AC040020C00902208009022070B5030034
:104EF0001000002B1ED0154A1268002A20D0144C36
:104F00002568802212060A43AA615A682168CA618C
:104F1000216895680D62216818316960216818312F
:104F20009160226893621A6801321A600121FFF7CA
:104F30000DFE70BD074B084A08480949FCF722FFDF
:104F4000084B054A05480849FCF71CFF6009022088
:104F5000AC040020C86800108069001010680010C0
:104F6000D3140000D4680010D714000010B5C36833
:104F7000DB68002B4CD09A6AD869196A8160D869BD
:104F80004860516818001830814247D0002199626A
:104F90001168013911602B4A1268002A44D15A69FC
:104FA0009868D96881609868486051681C1DA14262
:104FB00037D000215961116801391160D86A224A3D
:104FC0001268904201D9204A1060204982001218CC
:104FD00092008A1852689A609068D8604460946021
:104FE000DC6AA20010198000401858611019800076
:104FF00040580130121992005050DA6A144B1B6865
:10500000DB6A9A421CD9134B01221A60012018E076
:10501000114B124A12481349FCF7B4FE196A516049
:10502000B4E7D9685160C4E70F4A5168D9618C6808
:105030001C62606088609A62116801311160DCE76F
:10504000002010BD6009022064090220BC04002079
:10505000AC040020C009022000690010646900103F
:10506000106800102A1500008409022010B5324B88
:105070001B68002B4DD080231B060B430360C368C5
:10508000002B4CD00269416884688C608168446858
:105090004C605168814248D000210161116801399A
:1050A00011605A699868D968816098684860516849
:1050B0001C1DA1423CD000215961116801391160C9
:1050C000D86A1E4A1268904201D91C4A10601C49D5
:1050D0008200121892008A1852689A609068D8600C
:1050E00044609460DC6AA200101980004018586186
:1050F0001019800040580130121992005050DA6A9D
:10510000104B1B68DB6A9A4202D90F4B01221A60CE
:1051100010BD0E4B0E4A0F480F49FCF733FE0F4BE4
:105120000B4A0C480E49FCF72DFE81685160B3E72D
:10513000D9685160BFE7C0466009022064090220B7
:10514000BC040020AC040020C0090220D468001078
:105150004069001010680010781500000069001008
:1051600083150000014B18687047C046AC0400204E
:10517000064B1B68002B07D0054B1B68002B01D08A
:10518000002002E0022000E0012070479809022080
:105190006009022070B5041E45D0254B1B68834270
:1051A0000CD1036D002B0FD0013B0365C16AC26CAB
:1051B00091423AD0002B0DD0002070BD1D4B1E4AED
:1051C0001E481F49FCF7DEFD1E4B1B4A1B481E49AB
:1051D000FCF7D8FD051D2800FFF75EFBE16CE162DE
:1051E00020235B1AA361194B1B68994201D9174B05
:1051F0001960174A8B005B189B00D3185B68A3608B
:105200009968E1604D609D60E06A8300191889002B
:105210008918616119188900895801311B189B0090
:1052200099500120C9E70020C7E70020C5E7C04624
:10523000AC04002010690010C46900101068001050
:10524000631A000028690010641A00006409022033
:10525000BC040020044B1A6890691A68D16A1A6865
:1052600020235B1A93617047AC04002010B584B012
:1052700014001A0002235B420093019002910394F0
:10528000034B186800236946FFF7ACFB04B010BD60
:10529000BC09022010B583070AD00300032102E0F5
:1052A00001330B4205D01A78002AF9D1181A10BD23
:1052B000030019680C4A0D4C8A188A4322420FD108
:1052C0005968094A04338A188A43224208D1596826
:1052D000054A04338A188A432242F1D000E00133A0
:1052E0001A78002AFBD1E1E7FFFEFEFE8080808075
:1052F000F8B5C0460000000001B40248844601BC75
:10530000604700BFA901002001B40248844601BCE7
:10531000604700BFE901002001B40248844601BC97
:10532000604700BFE901002001B40248844601BC87
:08533000604700BF7501002079
:1053380064656C7461203E3D202D3230343820265F
:10534800262064656C7461203C3D20323034362060
:10535800262620212864656C7461202620312900C6
:10536800433A5C565341524D5C73646B5C7069639D
:105378006F5C7069636F2D73646B5C7372635C72CE
:1053880070325F636F6D6D6F6E5C686172647761B8
:1053980072655F6972715C6972712E63000000004A
:1053A800212864656C7461203E3E203131752900E6
:1053B80063757272656E74203D3D205F5F756E681F
:1053C800616E646C65645F757365725F6972712084
:1053D8007C7C2063757272656E74203D3D20686127
:1053E8006E646C65720000006972715F68616E645A
:1053F80065725F636861696E5F667265655F736C2D
:105408006F745F68656164203E3D203000000000D5
:10541800767461626C655F68616E646C6572203D6C
:105428003D205F5F756E68616E646C65645F75735F
:1054380065725F6972710000212828282875696ED5
:10544800747074725F7429767461626C655F6861E8
:105458006E646C657229202D20282875696E747019
:1054680074725F74296972715F68616E646C6572C9
:105478005F636861696E5F736C6F747329202D2098
:1054880031292573697A656F662873747275637438
:10549800206972715F68616E646C65725F636861D0
:1054A800696E5F736C6F742929000000307831636E
:1054B800203D3D20282A696E7374293E3E3131759E
:1054C8000000000021657863657074696F6E207C48
:1054D8007C20657863657074696F6E203D3D206E31
:1054E800756D202B20565441424C455F4649525316
:1054F800545F49525100000066616C7365000000FA
:1055080069735F7368617265645F6972715F726104
:10551800775F68616E646C657228736C6F745F681E
:10552800616E646C65722900657863657074696F73
:105538006E000000666F756E640000006972715F2E
:105548006164645F7461696C5F746F5F66726565DE
:105558005F6C697374000000696E736572745F62D2
:1055680072616E63685F616E645F6C696E6B000088
:105578006972715F72656D6F76655F68616E646C84
:10558800657200006D616B655F6272616E636800D1
:105598007265736F6C76655F6272616E6368000036
:1055A8006972715F7365745F6578636C757369762A
:1055B800655F68616E646C6572000000746F746189
:1055C8006C000000433A5C565341524D5C73646B67
:1055D8005C7069636F5C7069636F2D73646B5C7377
:1055E80072635C636F6D6D6F6E5C7069636F5F7320
:1055F800796E635C6D757465782E63006D74782DB3
:105608003E636F72652E7370696E5F6C6F636B00BB
:1056180075735F73696E63655F626F6F74203C3D7D
:1056280020494E5436345F4D41580000433A5C5689
:105638005341524D5C73646B5C7069636F5C706955
:10564800636F2D73646B5C7372635C636F6D6D6FF6
:105658006E5C7069636F5F626173655C696E636CD1
:105668007564652F7069636F2F74797065732E6820
:10567800000000006C6F636B5F69735F6F776E6526
:10568800725F69645F76616C6964286D74782D3E19
:105698006F776E65722900006D74782D3E656E74A3
:1056A80065725F636F756E74000000006D757465D8
:1056B800785F6578697400006D757465785F656EEC
:1056C8007465725F626C6F636B5F756E74696C0092
:1056D80072742D3E616C61726D5F6964203D3D207E
:1056E80069640000433A5C565341524D5C73646BE5
:1056F8005C7069636F5C7069636F2D73646B5C7356
:1057080072635C636F6D6D6F6E5C7069636F5F74FD
:10571800696D655C74696D652E6300006964202697
:1057280026206964203C3D20706F6F6C2D3E6865B3
:1057380061702D3E6D61785F6E6F64657300000067
:105748006964202626206964203C3D2068656170D4
:105758002D3E6D61785F6E6F64657300433A5C56E9
:105768005341524D5C73646B5C7069636F5C706924
:10577800636F2D73646B5C7372635C636F6D6D6FC5
:105788006E5C7069636F5F7574696C5C696E636C7D
:105798007564652F7069636F2F7574696C2F7068F5
:1057A8006561702E68000000706172656E745F69D3
:1057B800640000006368696C645F6964000000004D
:1057C800706172656E745F696420213D2063686949
:1057D8006C645F69640000002170685F636F6E74B9
:1057E80061696E735F6E6F646528706F6F6C2D3EB4
:1057F800686561702C2072657573655F696429003E
:1058080072656D6F7665645F6964203D3D206E65E5
:1058180078745F696400000063616C6C6261636B3B
:1058280000000000706F6F6C2D3E616C61726D5FDF
:10583800696E5F70726F6772657373203D3D206D8E
:10584800616B655F7075626C69635F696428696420
:105858005F686967682C206E6578745F69642900E1
:105868006964202626202170685F636F6E74616901
:105878006E735F6E6F646528686561702C2069645B
:105888002900000021686561702D3E667265655FBC
:105898007461696C5F69640064656661756C745FE6
:1058A800616C61726D5F706F6F6C5F696E6974694E
:1058B800616C697A6564282900000000616C617276
:1058C8006D5F696420213D20706F6F6C2D3E616CA7
:1058D80061726D5F696E5F70726F67726573730076
:1058E80072630000616C61726D5F706F6F6C5F63F3
:1058F800616E63656C5F616C61726D007570646187
:1059080074655F75735F73696E63655F626F6F74EB
:1059180000000000616C61726D5F706F6F6C5F6199
:105928006C61726D5F63616C6C6261636B00000037
:105938006765745F656E747279000000616C6172EE
:105948006D5F706F6F6C5F6765745F6465666175C6
:105958006C7400006765745F656E7472795F696462
:105968005F6869676800000070685F667265655FF8
:105978006E6F64650000000070685F6164645F6357
:1059880068696C645F6E6F646500000070685F69C9
:105998006E736572745F6E6F6465000070685F6730
:1059A80065745F6E6F6465006164645F616C6172E9
:1059B8006D5F756E6465725F6C6F636B00000000ED
:1059C800486172647761726520616C61726D20252F
:1059D8006420616C726561647920636C61696D65CE
:1059E8006400000074696D65725F68772D3E696EAA
:1059F80074732026203175203C3C20616C61726DE7
:105A08005F6E756D00000000433A5C565341524D7D
:105A18005C73646B5C7069636F5C7069636F2D7332
:105A2800646B5C7372635C7270325F636F6D6D6F11
:105A38006E5C68617264776172655F74696D6572C6
:105A48005C74696D65722E630000000068617264A1
:105A5800776172655F616C61726D5F7365745F74A5
:105A68006172676574000000726F6F745F6964002B
:105A7800433A5C565341524D5C73646B5C70696386
:105A88006F5C7069636F2D73646B5C7372635C63C6
:105A98006F6D6D6F6E5C7069636F5F7574696C5C58
:105AA80070686561702E63002170685F6765745F58
:105AB8006E6F646528686561702C20726F6F745F03
:105AC8006964292D3E7369626C696E670000000085
